{
  "abi": [
    {
      "inputs": [
        {
          "internalType": "contract IVotes",
          "name": "_token",
          "type": "address"
        }
      ],
      "stateMutability": "nonpayable",
      "type": "constructor"
    },
    {
      "inputs": [],
      "name": "Empty",
      "type": "error"
    },
    {
      "inputs": [],
      "name": "InvalidShortString",
      "type": "error"
    },
    {
      "inputs": [
        {
          "internalType": "string",
          "name": "str",
          "type": "string"
        }
      ],
      "name": "StringTooLong",
      "type": "error"
    },
    {
      "anonymous": false,
      "inputs": [],
      "name": "EIP712DomainChanged",
      "type": "event"
    },
    {
      "anonymous": false,
      "inputs": [
        {
          "indexed": false,
          "internalType": "uint256",
          "name": "proposalId",
          "type": "uint256"
        }
      ],
      "name": "ProposalCanceled",
      "type": "event"
    },
    {
      "anonymous": false,
      "inputs": [
        {
          "indexed": false,
          "internalType": "uint256",
          "name": "proposalId",
          "type": "uint256"
        },
        {
          "indexed": false,
          "internalType": "address",
          "name": "proposer",
          "type": "address"
        },
        {
          "indexed": false,
          "internalType": "address[]",
          "name": "targets",
          "type": "address[]"
        },
        {
          "indexed": false,
          "internalType": "uint256[]",
          "name": "values",
          "type": "uint256[]"
        },
        {
          "indexed": false,
          "internalType": "string[]",
          "name": "signatures",
          "type": "string[]"
        },
        {
          "indexed": false,
          "internalType": "bytes[]",
          "name": "calldatas",
          "type": "bytes[]"
        },
        {
          "indexed": false,
          "internalType": "uint256",
          "name": "voteStart",
          "type": "uint256"
        },
        {
          "indexed": false,
          "internalType": "uint256",
          "name": "voteEnd",
          "type": "uint256"
        },
        {
          "indexed": false,
          "internalType": "string",
          "name": "description",
          "type": "string"
        }
      ],
      "name": "ProposalCreated",
      "type": "event"
    },
    {
      "anonymous": false,
      "inputs": [
        {
          "indexed": false,
          "internalType": "uint256",
          "name": "proposalId",
          "type": "uint256"
        }
      ],
      "name": "ProposalExecuted",
      "type": "event"
    },
    {
      "anonymous": false,
      "inputs": [
        {
          "indexed": false,
          "internalType": "uint256",
          "name": "oldProposalThreshold",
          "type": "uint256"
        },
        {
          "indexed": false,
          "internalType": "uint256",
          "name": "newProposalThreshold",
          "type": "uint256"
        }
      ],
      "name": "ProposalThresholdSet",
      "type": "event"
    },
    {
      "anonymous": false,
      "inputs": [
        {
          "indexed": false,
          "internalType": "uint256",
          "name": "oldQuorumNumerator",
          "type": "uint256"
        },
        {
          "indexed": false,
          "internalType": "uint256",
          "name": "newQuorumNumerator",
          "type": "uint256"
        }
      ],
      "name": "QuorumNumeratorUpdated",
      "type": "event"
    },
    {
      "anonymous": false,
      "inputs": [
        {
          "indexed": true,
          "internalType": "address",
          "name": "voter",
          "type": "address"
        },
        {
          "indexed": false,
          "internalType": "uint256",
          "name": "proposalId",
          "type": "uint256"
        },
        {
          "indexed": false,
          "internalType": "uint8",
          "name": "support",
          "type": "uint8"
        },
        {
          "indexed": false,
          "internalType": "uint256",
          "name": "weight",
          "type": "uint256"
        },
        {
          "indexed": false,
          "internalType": "string",
          "name": "reason",
          "type": "string"
        }
      ],
      "name": "VoteCast",
      "type": "event"
    },
    {
      "anonymous": false,
      "inputs": [
        {
          "indexed": true,
          "internalType": "address",
          "name": "voter",
          "type": "address"
        },
        {
          "indexed": false,
          "internalType": "uint256",
          "name": "proposalId",
          "type": "uint256"
        },
        {
          "indexed": false,
          "internalType": "uint8",
          "name": "support",
          "type": "uint8"
        },
        {
          "indexed": false,
          "internalType": "uint256",
          "name": "weight",
          "type": "uint256"
        },
        {
          "indexed": false,
          "internalType": "string",
          "name": "reason",
          "type": "string"
        },
        {
          "indexed": false,
          "internalType": "bytes",
          "name": "params",
          "type": "bytes"
        }
      ],
      "name": "VoteCastWithParams",
      "type": "event"
    },
    {
      "anonymous": false,
      "inputs": [
        {
          "indexed": false,
          "internalType": "uint256",
          "name": "oldVotingDelay",
          "type": "uint256"
        },
        {
          "indexed": false,
          "internalType": "uint256",
          "name": "newVotingDelay",
          "type": "uint256"
        }
      ],
      "name": "VotingDelaySet",
      "type": "event"
    },
    {
      "anonymous": false,
      "inputs": [
        {
          "indexed": false,
          "internalType": "uint256",
          "name": "oldVotingPeriod",
          "type": "uint256"
        },
        {
          "indexed": false,
          "internalType": "uint256",
          "name": "newVotingPeriod",
          "type": "uint256"
        }
      ],
      "name": "VotingPeriodSet",
      "type": "event"
    },
    {
      "inputs": [],
      "name": "BALLOT_TYPEHASH",
      "outputs": [
        {
          "internalType": "bytes32",
          "name": "",
          "type": "bytes32"
        }
      ],
      "stateMutability": "view",
      "type": "function"
    },
    {
      "inputs": [],
      "name": "CLOCK_MODE",
      "outputs": [
        {
          "internalType": "string",
          "name": "",
          "type": "string"
        }
      ],
      "stateMutability": "view",
      "type": "function"
    },
    {
      "inputs": [],
      "name": "COUNTING_MODE",
      "outputs": [
        {
          "internalType": "string",
          "name": "",
          "type": "string"
        }
      ],
      "stateMutability": "pure",
      "type": "function"
    },
    {
      "inputs": [],
      "name": "EXTENDED_BALLOT_TYPEHASH",
      "outputs": [
        {
          "internalType": "bytes32",
          "name": "",
          "type": "bytes32"
        }
      ],
      "stateMutability": "view",
      "type": "function"
    },
    {
      "inputs": [
        {
          "internalType": "address[]",
          "name": "targets",
          "type": "address[]"
        },
        {
          "internalType": "uint256[]",
          "name": "values",
          "type": "uint256[]"
        },
        {
          "internalType": "bytes[]",
          "name": "calldatas",
          "type": "bytes[]"
        },
        {
          "internalType": "bytes32",
          "name": "descriptionHash",
          "type": "bytes32"
        }
      ],
      "name": "cancel",
      "outputs": [
        {
          "internalType": "uint256",
          "name": "",
          "type": "uint256"
        }
      ],
      "stateMutability": "nonpayable",
      "type": "function"
    },
    {
      "inputs": [
        {
          "internalType": "uint256",
          "name": "proposalId",
          "type": "uint256"
        },
        {
          "internalType": "uint8",
          "name": "support",
          "type": "uint8"
        }
      ],
      "name": "castVote",
      "outputs": [
        {
          "internalType": "uint256",
          "name": "",
          "type": "uint256"
        }
      ],
      "stateMutability": "nonpayable",
      "type": "function"
    },
    {
      "inputs": [
        {
          "internalType": "uint256",
          "name": "proposalId",
          "type": "uint256"
        },
        {
          "internalType": "uint8",
          "name": "support",
          "type": "uint8"
        },
        {
          "internalType": "uint8",
          "name": "v",
          "type": "uint8"
        },
        {
          "internalType": "bytes32",
          "name": "r",
          "type": "bytes32"
        },
        {
          "internalType": "bytes32",
          "name": "s",
          "type": "bytes32"
        }
      ],
      "name": "castVoteBySig",
      "outputs": [
        {
          "internalType": "uint256",
          "name": "",
          "type": "uint256"
        }
      ],
      "stateMutability": "nonpayable",
      "type": "function"
    },
    {
      "inputs": [
        {
          "internalType": "uint256",
          "name": "proposalId",
          "type": "uint256"
        },
        {
          "internalType": "uint8",
          "name": "support",
          "type": "uint8"
        },
        {
          "internalType": "string",
          "name": "reason",
          "type": "string"
        }
      ],
      "name": "castVoteWithReason",
      "outputs": [
        {
          "internalType": "uint256",
          "name": "",
          "type": "uint256"
        }
      ],
      "stateMutability": "nonpayable",
      "type": "function"
    },
    {
      "inputs": [
        {
          "internalType": "uint256",
          "name": "proposalId",
          "type": "uint256"
        },
        {
          "internalType": "uint8",
          "name": "support",
          "type": "uint8"
        },
        {
          "internalType": "string",
          "name": "reason",
          "type": "string"
        },
        {
          "internalType": "bytes",
          "name": "params",
          "type": "bytes"
        }
      ],
      "name": "castVoteWithReasonAndParams",
      "outputs": [
        {
          "internalType": "uint256",
          "name": "",
          "type": "uint256"
        }
      ],
      "stateMutability": "nonpayable",
      "type": "function"
    },
    {
      "inputs": [
        {
          "internalType": "uint256",
          "name": "proposalId",
          "type": "uint256"
        },
        {
          "internalType": "uint8",
          "name": "support",
          "type": "uint8"
        },
        {
          "internalType": "string",
          "name": "reason",
          "type": "string"
        },
        {
          "internalType": "bytes",
          "name": "params",
          "type": "bytes"
        },
        {
          "internalType": "uint8",
          "name": "v",
          "type": "uint8"
        },
        {
          "internalType": "bytes32",
          "name": "r",
          "type": "bytes32"
        },
        {
          "internalType": "bytes32",
          "name": "s",
          "type": "bytes32"
        }
      ],
      "name": "castVoteWithReasonAndParamsBySig",
      "outputs": [
        {
          "internalType": "uint256",
          "name": "",
          "type": "uint256"
        }
      ],
      "stateMutability": "nonpayable",
      "type": "function"
    },
    {
      "inputs": [],
      "name": "clock",
      "outputs": [
        {
          "internalType": "uint48",
          "name": "",
          "type": "uint48"
        }
      ],
      "stateMutability": "view",
      "type": "function"
    },
    {
      "inputs": [],
      "name": "eip712Domain",
      "outputs": [
        {
          "internalType": "bytes1",
          "name": "fields",
          "type": "bytes1"
        },
        {
          "internalType": "string",
          "name": "name",
          "type": "string"
        },
        {
          "internalType": "string",
          "name": "version",
          "type": "string"
        },
        {
          "internalType": "uint256",
          "name": "chainId",
          "type": "uint256"
        },
        {
          "internalType": "address",
          "name": "verifyingContract",
          "type": "address"
        },
        {
          "internalType": "bytes32",
          "name": "salt",
          "type": "bytes32"
        },
        {
          "internalType": "uint256[]",
          "name": "extensions",
          "type": "uint256[]"
        }
      ],
      "stateMutability": "view",
      "type": "function"
    },
    {
      "inputs": [
        {
          "internalType": "address[]",
          "name": "targets",
          "type": "address[]"
        },
        {
          "internalType": "uint256[]",
          "name": "values",
          "type": "uint256[]"
        },
        {
          "internalType": "bytes[]",
          "name": "calldatas",
          "type": "bytes[]"
        },
        {
          "internalType": "bytes32",
          "name": "descriptionHash",
          "type": "bytes32"
        }
      ],
      "name": "execute",
      "outputs": [
        {
          "internalType": "uint256",
          "name": "",
          "type": "uint256"
        }
      ],
      "stateMutability": "payable",
      "type": "function"
    },
    {
      "inputs": [
        {
          "internalType": "address",
          "name": "account",
          "type": "address"
        },
        {
          "internalType": "uint256",
          "name": "timepoint",
          "type": "uint256"
        }
      ],
      "name": "getVotes",
      "outputs": [
        {
          "internalType": "uint256",
          "name": "",
          "type": "uint256"
        }
      ],
      "stateMutability": "view",
      "type": "function"
    },
    {
      "inputs": [
        {
          "internalType": "address",
          "name": "account",
          "type": "address"
        },
        {
          "internalType": "uint256",
          "name": "timepoint",
          "type": "uint256"
        },
        {
          "internalType": "bytes",
          "name": "params",
          "type": "bytes"
        }
      ],
      "name": "getVotesWithParams",
      "outputs": [
        {
          "internalType": "uint256",
          "name": "",
          "type": "uint256"
        }
      ],
      "stateMutability": "view",
      "type": "function"
    },
    {
      "inputs": [
        {
          "internalType": "uint256",
          "name": "proposalId",
          "type": "uint256"
        },
        {
          "internalType": "address",
          "name": "account",
          "type": "address"
        }
      ],
      "name": "hasVoted",
      "outputs": [
        {
          "internalType": "bool",
          "name": "",
          "type": "bool"
        }
      ],
      "stateMutability": "view",
      "type": "function"
    },
    {
      "inputs": [
        {
          "internalType": "address[]",
          "name": "targets",
          "type": "address[]"
        },
        {
          "internalType": "uint256[]",
          "name": "values",
          "type": "uint256[]"
        },
        {
          "internalType": "bytes[]",
          "name": "calldatas",
          "type": "bytes[]"
        },
        {
          "internalType": "bytes32",
          "name": "descriptionHash",
          "type": "bytes32"
        }
      ],
      "name": "hashProposal",
      "outputs": [
        {
          "internalType": "uint256",
          "name": "",
          "type": "uint256"
        }
      ],
      "stateMutability": "pure",
      "type": "function"
    },
    {
      "inputs": [],
      "name": "name",
      "outputs": [
        {
          "internalType": "string",
          "name": "",
          "type": "string"
        }
      ],
      "stateMutability": "view",
      "type": "function"
    },
    {
      "inputs": [
        {
          "internalType": "address",
          "name": "",
          "type": "address"
        },
        {
          "internalType": "address",
          "name": "",
          "type": "address"
        },
        {
          "internalType": "uint256[]",
          "name": "",
          "type": "uint256[]"
        },
        {
          "internalType": "uint256[]",
          "name": "",
          "type": "uint256[]"
        },
        {
          "internalType": "bytes",
          "name": "",
          "type": "bytes"
        }
      ],
      "name": "onERC1155BatchReceived",
      "outputs": [
        {
          "internalType": "bytes4",
          "name": "",
          "type": "bytes4"
        }
      ],
      "stateMutability": "nonpayable",
      "type": "function"
    },
    {
      "inputs": [
        {
          "internalType": "address",
          "name": "",
          "type": "address"
        },
        {
          "internalType": "address",
          "name": "",
          "type": "address"
        },
        {
          "internalType": "uint256",
          "name": "",
          "type": "uint256"
        },
        {
          "internalType": "uint256",
          "name": "",
          "type": "uint256"
        },
        {
          "internalType": "bytes",
          "name": "",
          "type": "bytes"
        }
      ],
      "name": "onERC1155Received",
      "outputs": [
        {
          "internalType": "bytes4",
          "name": "",
          "type": "bytes4"
        }
      ],
      "stateMutability": "nonpayable",
      "type": "function"
    },
    {
      "inputs": [
        {
          "internalType": "address",
          "name": "",
          "type": "address"
        },
        {
          "internalType": "address",
          "name": "",
          "type": "address"
        },
        {
          "internalType": "uint256",
          "name": "",
          "type": "uint256"
        },
        {
          "internalType": "bytes",
          "name": "",
          "type": "bytes"
        }
      ],
      "name": "onERC721Received",
      "outputs": [
        {
          "internalType": "bytes4",
          "name": "",
          "type": "bytes4"
        }
      ],
      "stateMutability": "nonpayable",
      "type": "function"
    },
    {
      "inputs": [
        {
          "internalType": "uint256",
          "name": "proposalId",
          "type": "uint256"
        }
      ],
      "name": "proposalDeadline",
      "outputs": [
        {
          "internalType": "uint256",
          "name": "",
          "type": "uint256"
        }
      ],
      "stateMutability": "view",
      "type": "function"
    },
    {
      "inputs": [
        {
          "internalType": "uint256",
          "name": "proposalId",
          "type": "uint256"
        }
      ],
      "name": "proposalProposer",
      "outputs": [
        {
          "internalType": "address",
          "name": "",
          "type": "address"
        }
      ],
      "stateMutability": "view",
      "type": "function"
    },
    {
      "inputs": [
        {
          "internalType": "uint256",
          "name": "proposalId",
          "type": "uint256"
        }
      ],
      "name": "proposalSnapshot",
      "outputs": [
        {
          "internalType": "uint256",
          "name": "",
          "type": "uint256"
        }
      ],
      "stateMutability": "view",
      "type": "function"
    },
    {
      "inputs": [],
      "name": "proposalThreshold",
      "outputs": [
        {
          "internalType": "uint256",
          "name": "",
          "type": "uint256"
        }
      ],
      "stateMutability": "view",
      "type": "function"
    },
    {
      "inputs": [
        {
          "internalType": "uint256",
          "name": "proposalId",
          "type": "uint256"
        }
      ],
      "name": "proposalVotes",
      "outputs": [
        {
          "internalType": "uint256",
          "name": "againstVotes",
          "type": "uint256"
        },
        {
          "internalType": "uint256",
          "name": "forVotes",
          "type": "uint256"
        },
        {
          "internalType": "uint256",
          "name": "abstainVotes",
          "type": "uint256"
        }
      ],
      "stateMutability": "view",
      "type": "function"
    },
    {
      "inputs": [
        {
          "internalType": "address[]",
          "name": "targets",
          "type": "address[]"
        },
        {
          "internalType": "uint256[]",
          "name": "values",
          "type": "uint256[]"
        },
        {
          "internalType": "bytes[]",
          "name": "calldatas",
          "type": "bytes[]"
        },
        {
          "internalType": "string",
          "name": "description",
          "type": "string"
        }
      ],
      "name": "propose",
      "outputs": [
        {
          "internalType": "uint256",
          "name": "",
          "type": "uint256"
        }
      ],
      "stateMutability": "nonpayable",
      "type": "function"
    },
    {
      "inputs": [
        {
          "internalType": "uint256",
          "name": "timepoint",
          "type": "uint256"
        }
      ],
      "name": "quorum",
      "outputs": [
        {
          "internalType": "uint256",
          "name": "",
          "type": "uint256"
        }
      ],
      "stateMutability": "view",
      "type": "function"
    },
    {
      "inputs": [],
      "name": "quorumDenominator",
      "outputs": [
        {
          "internalType": "uint256",
          "name": "",
          "type": "uint256"
        }
      ],
      "stateMutability": "view",
      "type": "function"
    },
    {
      "inputs": [
        {
          "internalType": "uint256",
          "name": "timepoint",
          "type": "uint256"
        }
      ],
      "name": "quorumNumerator",
      "outputs": [
        {
          "internalType": "uint256",
          "name": "",
          "type": "uint256"
        }
      ],
      "stateMutability": "view",
      "type": "function"
    },
    {
      "inputs": [],
      "name": "quorumNumerator",
      "outputs": [
        {
          "internalType": "uint256",
          "name": "",
          "type": "uint256"
        }
      ],
      "stateMutability": "view",
      "type": "function"
    },
    {
      "inputs": [
        {
          "internalType": "address",
          "name": "target",
          "type": "address"
        },
        {
          "internalType": "uint256",
          "name": "value",
          "type": "uint256"
        },
        {
          "internalType": "bytes",
          "name": "data",
          "type": "bytes"
        }
      ],
      "name": "relay",
      "outputs": [],
      "stateMutability": "payable",
      "type": "function"
    },
    {
      "inputs": [
        {
          "internalType": "uint256",
          "name": "newProposalThreshold",
          "type": "uint256"
        }
      ],
      "name": "setProposalThreshold",
      "outputs": [],
      "stateMutability": "nonpayable",
      "type": "function"
    },
    {
      "inputs": [
        {
          "internalType": "uint256",
          "name": "newVotingDelay",
          "type": "uint256"
        }
      ],
      "name": "setVotingDelay",
      "outputs": [],
      "stateMutability": "nonpayable",
      "type": "function"
    },
    {
      "inputs": [
        {
          "internalType": "uint256",
          "name": "newVotingPeriod",
          "type": "uint256"
        }
      ],
      "name": "setVotingPeriod",
      "outputs": [],
      "stateMutability": "nonpayable",
      "type": "function"
    },
    {
      "inputs": [
        {
          "internalType": "uint256",
          "name": "proposalId",
          "type": "uint256"
        }
      ],
      "name": "state",
      "outputs": [
        {
          "internalType": "enum IGovernor.ProposalState",
          "name": "",
          "type": "uint8"
        }
      ],
      "stateMutability": "view",
      "type": "function"
    },
    {
      "inputs": [
        {
          "internalType": "bytes4",
          "name": "interfaceId",
          "type": "bytes4"
        }
      ],
      "name": "supportsInterface",
      "outputs": [
        {
          "internalType": "bool",
          "name": "",
          "type": "bool"
        }
      ],
      "stateMutability": "view",
      "type": "function"
    },
    {
      "inputs": [],
      "name": "token",
      "outputs": [
        {
          "internalType": "contract IERC5805",
          "name": "",
          "type": "address"
        }
      ],
      "stateMutability": "view",
      "type": "function"
    },
    {
      "inputs": [
        {
          "internalType": "uint256",
          "name": "newQuorumNumerator",
          "type": "uint256"
        }
      ],
      "name": "updateQuorumNumerator",
      "outputs": [],
      "stateMutability": "nonpayable",
      "type": "function"
    },
    {
      "inputs": [],
      "name": "version",
      "outputs": [
        {
          "internalType": "string",
          "name": "",
          "type": "string"
        }
      ],
      "stateMutability": "view",
      "type": "function"
    },
    {
      "inputs": [],
      "name": "votingDelay",
      "outputs": [
        {
          "internalType": "uint256",
          "name": "",
          "type": "uint256"
        }
      ],
      "stateMutability": "pure",
      "type": "function"
    },
    {
      "inputs": [],
      "name": "votingPeriod",
      "outputs": [
        {
          "internalType": "uint256",
          "name": "",
          "type": "uint256"
        }
      ],
      "stateMutability": "view",
      "type": "function"
    },
    {
      "stateMutability": "payable",
      "type": "receive"
    }
  ],
  "bytecode": {
    "object": "0x6101806040523480156200001257600080fd5b5060405162004e5938038062004e5983398101604081905262000035916200093e565b6004816170806203138060006040518060400160405280600a81526020016926bca3b7bb32b93737b960b11b81525080620000756200019960201b60201c565b62000090600083620001b460201b62001b1b1790919060201c565b61012052620000ad816001620001b4602090811b62001b1b17901c565b61014052815160208084019190912060e052815190820120610100524660a0526200013b60e05161010051604080517f8b73c3c69bb8fe3d512ecc4cf759cc79239f7b179b0ffacaa9a75d522b39400f60208201529081019290925260608201524660808201523060a082015260009060c00160405160208183030381529060405280519060200120905090565b60805250503060c052600262000152828262000a0e565b506200016090508362000204565b6200016b8262000245565b6200017681620002ec565b5050506001600160a01b03166101605262000191816200032d565b505062000b9b565b6040805180820190915260018152603160f81b602082015290565b6000602083511015620001d457620001cc83620004e2565b9050620001fe565b82620001eb836200052560201b62001b4c1760201c565b90620001f8908262000a0e565b5060ff90505b92915050565b60065460408051918252602082018390527fc565b045403dc03c2eea82b81a0465edad9e2e7fc4d97e11421c209da93d7a93910160405180910390a1600655565b60008111620002ab5760405162461bcd60e51b815260206004820152602760248201527f476f7665726e6f7253657474696e67733a20766f74696e6720706572696f6420604482015266746f6f206c6f7760c81b60648201526084015b60405180910390fd5b60075460408051918252602082018390527f7e3f7f0708a84de9203036abaa450dccc85ad5ff52f78c170f3edb55cf5e8828910160405180910390a1600755565b60085460408051918252602082018390527fccb45da8d5717e6c4544694297c4ba5cf151d455c9bb0ed4fc7a38411bc05461910160405180910390a1600855565b6064811115620003b25760405162461bcd60e51b815260206004820152604360248201527f476f7665726e6f72566f74657351756f72756d4672616374696f6e3a2071756f60448201527f72756d4e756d657261746f72206f7665722071756f72756d44656e6f6d696e616064820152623a37b960e91b608482015260a401620002a2565b6000620003be62000528565b90508015801590620003d05750600b54155b156200044b57600b6000016040518060400160405280600063ffffffff16815260200162000409846200056260201b62001b4f1760201c565b6001600160e01b0390811690915282546001810184556000938452602093849020835194909301519091166401000000000263ffffffff909316929092179101555b620004a3620004766200045d620005d1565b65ffffffffffff166200065360201b62001bd21760201c565b6200048c846200056260201b62001b4f1760201c565b600b620006ba60201b62001c4e179092919060201c565b505060408051828152602081018490527f0553476bf02ef2726e8ce5ced78d63e26e602e4a2257b1f559418e24b4633997910160405180910390a15050565b600080829050601f8151111562000510578260405163305a27a960e01b8152600401620002a2919062000ada565b80516200051d8262000b2a565b179392505050565b90565b600b546000901562000559576200054b600b620006d760201b62001c691760201c565b6001600160e01b0316905090565b600a545b905090565b60006001600160e01b03821115620005cd5760405162461bcd60e51b815260206004820152602760248201527f53616665436173743a2076616c756520646f65736e27742066697420696e20326044820152663234206269747360c81b6064820152608401620002a2565b5090565b6000610160516001600160a01b03166391ddadf46040518163ffffffff1660e01b8152600401602060405180830381865afa92505050801562000633575060408051601f3d908101601f19168201909252620006309181019062000b4f565b60015b6200064e576200055d436200072560201b62001cb11760201c565b919050565b600063ffffffff821115620005cd5760405162461bcd60e51b815260206004820152602660248201527f53616665436173743a2076616c756520646f65736e27742066697420696e203360448201526532206269747360d01b6064820152608401620002a2565b600080620006ca8585856200078e565b915091505b935093915050565b805460009080156200071b576200070383620006f560018462000b79565b600091825260209091200190565b5464010000000090046001600160e01b03166200071e565b60005b9392505050565b600065ffffffffffff821115620005cd5760405162461bcd60e51b815260206004820152602660248201527f53616665436173743a2076616c756520646f65736e27742066697420696e203460448201526538206269747360d01b6064820152608401620002a2565b825460009081908015620008e3576000620007b087620006f560018562000b79565b60408051808201909152905463ffffffff8082168084526401000000009092046001600160e01b031660208401529192509087161015620008345760405162461bcd60e51b815260206004820152601b60248201527f436865636b706f696e743a2064656372656173696e67206b65797300000000006044820152606401620002a2565b805163ffffffff8088169116036200088257846200085988620006f560018662000b79565b80546001600160e01b03929092166401000000000263ffffffff909216919091179055620008d2565b6040805180820190915263ffffffff80881682526001600160e01b0380881660208085019182528b54600181018d5560008d81529190912094519151909216640100000000029216919091179101555b602001519250839150620006cf9050565b50506040805180820190915263ffffffff80851682526001600160e01b0380851660208085019182528854600181018a5560008a815291822095519251909316640100000000029190931617920191909155905081620006cf565b6000602082840312156200095157600080fd5b81516001600160a01b03811681146200071e57600080fd5b634e487b7160e01b600052604160045260246000fd5b600181811c908216806200099457607f821691505b602082108103620009b557634e487b7160e01b600052602260045260246000fd5b50919050565b601f82111562000a0957600081815260208120601f850160051c81016020861015620009e45750805b601f850160051c820191505b8181101562000a0557828155600101620009f0565b5050505b505050565b81516001600160401b0381111562000a2a5762000a2a62000969565b62000a428162000a3b84546200097f565b84620009bb565b602080601f83116001811462000a7a576000841562000a615750858301515b600019600386901b1c1916600185901b17855562000a05565b600085815260208120601f198616915b8281101562000aab5788860151825594840194600190910190840162000a8a565b508582101562000aca5787850151600019600388901b60f8161c191681555b5050505050600190811b01905550565b600060208083528351808285015260005b8181101562000b095785810183015185820160400152820162000aeb565b506000604082860101526040601f19601f8301168501019250505092915050565b80516020808301519190811015620009b55760001960209190910360031b1b16919050565b60006020828403121562000b6257600080fd5b815165ffffffffffff811681146200071e57600080fd5b81810381811115620001fe57634e487b7160e01b600052601160045260246000fd5b60805160a05160c05160e0516101005161012051610140516101605161423c62000c1d600039600081816109350152818161100f0152818161178501528181611a940152612747015260006117310152600061170701526000612b8001526000612b5801526000612ab301526000612add01526000612b07015261423c6000f3fe6080604052600436106102d55760003560e01c806370b0f66011610179578063c01f9e37116100d6578063ea0217cf1161008a578063f23a6e6111610064578063f23a6e61146108d7578063f8ce560a14610903578063fc0c546a1461092357600080fd5b8063ea0217cf14610877578063eb9019d414610897578063ece40cc1146108b757600080fd5b8063c59057e4116100bb578063c59057e4146107dd578063dd4e2ba5146107fd578063deaaa7cc1461084357600080fd5b8063c01f9e3714610790578063c28bc2fa146107ca57600080fd5b806397c3d3341161012d578063a7713a7011610112578063a7713a701461073b578063b58131b014610750578063bc197c811461076457600080fd5b806397c3d334146107075780639a802a6d1461071b57600080fd5b80637d5e81e21161015e5780637d5e81e21461069357806384b0196e146106b357806391ddadf4146106db57600080fd5b806370b0f660146106535780637b3c71d31461067357600080fd5b80633932abb1116102325780634bf5d7e9116101e657806356781388116101c057806356781388146105f35780635f398a141461061357806360c4247f1461063357600080fd5b80634bf5d7e91461055f578063544ffc9c1461057457806354fd4d50146105c957600080fd5b80633e4f49e6116102175780633e4f49e6146104f2578063438596321461051f578063452115d61461053f57600080fd5b80633932abb1146104be5780633bccf4fd146104d257600080fd5b8063143489d0116102895780632656227d1161026e5780632656227d146104405780632d63f693146104535780632fe3e2611461048a57600080fd5b8063143489d0146103a2578063150b7a02146103fc57600080fd5b806303420181116102ba578063034201811461034057806306f3f9e61461036057806306fdde031461038057600080fd5b806301ffc9a7146102ec57806302a251a31461032157600080fd5b366102e757005b60405180910390fd5b005b600080fd5b3480156102f857600080fd5b5061030c6103073660046132ea565b610957565b60405190151581526020015b60405180910390f35b34801561032d57600080fd5b506007545b604051908152602001610318565b34801561034c57600080fd5b5061033261035b36600461343b565b6109f4565b34801561036c57600080fd5b506102e561037b3660046134e2565b610aec565b34801561038c57600080fd5b50610395610b59565b604051610318919061354b565b3480156103ae57600080fd5b506103e46103bd3660046134e2565b6000908152600360205260409020546801000000000000000090046001600160a01b031690565b6040516001600160a01b039091168152602001610318565b34801561040857600080fd5b50610427610417366004613575565b630a85bd0160e11b949350505050565b6040516001600160e01b03199091168152602001610318565b61033261044e366004613749565b610beb565b34801561045f57600080fd5b5061033261046e3660046134e2565b60009081526003602052604090205467ffffffffffffffff1690565b34801561049657600080fd5b506103327fb3b3f3b703cd84ce352197dcff232b1b5d3cfb2025ce47cf04742d0651f1af8881565b3480156104ca57600080fd5b506001610332565b3480156104de57600080fd5b506103326104ed3660046137d9565b610d17565b3480156104fe57600080fd5b5061051261050d3660046134e2565b610d8d565b604051610318919061383d565b34801561052b57600080fd5b5061030c61053a366004613865565b610ecf565b34801561054b57600080fd5b5061033261055a366004613749565b610eff565b34801561056b57600080fd5b5061039561100b565b34801561058057600080fd5b506105ae61058f3660046134e2565b6000908152600960205260409020805460018201546002909201549092565b60408051938452602084019290925290820152606001610318565b3480156105d557600080fd5b506040805180820190915260018152603160f81b6020820152610395565b3480156105ff57600080fd5b5061033261060e366004613891565b6110cd565b34801561061f57600080fd5b5061033261062e3660046138b4565b6110f6565b34801561063f57600080fd5b5061033261064e3660046134e2565b611140565b34801561065f57600080fd5b506102e561066e3660046134e2565b6111f2565b34801561067f57600080fd5b5061033261068e366004613938565b61125c565b34801561069f57600080fd5b506103326106ae366004613992565b6112a4565b3480156106bf57600080fd5b506106c86116f9565b6040516103189796959493929190613a82565b3480156106e757600080fd5b506106f0611781565b60405165ffffffffffff9091168152602001610318565b34801561071357600080fd5b506064610332565b34801561072757600080fd5b50610332610736366004613ae2565b61180f565b34801561074757600080fd5b50610332611826565b34801561075c57600080fd5b506000610332565b34801561077057600080fd5b5061042761077f366004613b39565b63bc197c8160e01b95945050505050565b34801561079c57600080fd5b506103326107ab3660046134e2565b60009081526003602052604090206001015467ffffffffffffffff1690565b6102e56107d8366004613bc9565b611850565b3480156107e957600080fd5b506103326107f8366004613749565b611942565b34801561080957600080fd5b506040805180820190915260208082527f737570706f72743d627261766f2671756f72756d3d666f722c6162737461696e90820152610395565b34801561084f57600080fd5b506103327f150214d74d59b7d1e90c73fc22ef3d991dd0a76b046543d4d80ab92d2a50328f81565b34801561088357600080fd5b506102e56108923660046134e2565b61197c565b3480156108a357600080fd5b506103326108b2366004613c0b565b6119e6565b3480156108c357600080fd5b506102e56108d23660046134e2565b611a07565b3480156108e357600080fd5b506104276108f2366004613c35565b63f23a6e6160e01b95945050505050565b34801561090f57600080fd5b5061033261091e3660046134e2565b611a71565b34801561092f57600080fd5b506103e47f000000000000000000000000000000000000000000000000000000000000000081565b600063288ace0360e11b6318df743f60e31b63bf26d89760e01b6379dd796f60e01b6001600160e01b0319861682148061099d57506001600160e01b0319868116908216145b806109b457506001600160e01b0319868116908516145b806109cf57506001600160e01b03198616630271189760e51b145b806109ea57506301ffc9a760e01b6001600160e01b03198716145b9695505050505050565b600080610a98610a907fb3b3f3b703cd84ce352197dcff232b1b5d3cfb2025ce47cf04742d0651f1af888c8c8c8c604051610a30929190613c9a565b60405180910390208b80519060200120604051602001610a75959493929190948552602085019390935260ff9190911660408401526060830152608082015260a00190565b60405160208183030381529060405280519060200120611d2f565b868686611d5c565b9050610ade8a828b8b8b8080601f0160208091040260200160405190810160405280939291908181526020018383808284376000920191909152508d9250611d7a915050565b9a9950505050505050505050565b333014610b365760405162461bcd60e51b8152602060048201526018602482015277476f7665726e6f723a206f6e6c79476f7665726e616e636560401b60448201526064016102dc565b610b4d565b80610b466004611ed0565b03610b3b57505b610b5681611f58565b50565b606060028054610b6890613caa565b80601f0160208091040260200160405190810160405280929190818152602001828054610b9490613caa565b8015610be15780601f10610bb657610100808354040283529160200191610be1565b820191906000526020600020905b815481529060010190602001808311610bc457829003601f168201915b5050505050905090565b600080610bfa86868686611942565b90506000610c0782610d8d565b90506004816007811115610c1d57610c1d613827565b1480610c3a57506005816007811115610c3857610c38613827565b145b610c905760405162461bcd60e51b815260206004820152602160248201527f476f7665726e6f723a2070726f706f73616c206e6f74207375636365737366756044820152601b60fa1b60648201526084016102dc565b60008281526003602052604090819020600201805460ff19166001179055517f712ae1383f79ac853f8d882153778e0260ef8f03b504e2866e0593e04d2b291f90610cde9084815260200190565b60405180910390a1610cf382888888886120c7565b610d008288888888612154565b610d0d82888888886120c7565b5095945050505050565b604080517f150214d74d59b7d1e90c73fc22ef3d991dd0a76b046543d4d80ab92d2a50328f602082015290810186905260ff851660608201526000908190610d6590610a9090608001610a75565b9050610d828782886040518060200160405280600081525061224a565b979650505050505050565b6000818152600360205260408120600281015460ff1615610db15750600792915050565b6002810154610100900460ff1615610dcc5750600292915050565b60008381526003602052604081205467ffffffffffffffff1690819003610e355760405162461bcd60e51b815260206004820152601d60248201527f476f7665726e6f723a20756e6b6e6f776e2070726f706f73616c20696400000060448201526064016102dc565b6000610e3f611781565b65ffffffffffff169050808210610e5b57506000949350505050565b60008581526003602052604090206001015467ffffffffffffffff16818110610e8a5750600195945050505050565b610e9386612276565b8015610eb2575060008681526009602052604090208054600190910154115b15610ec35750600495945050505050565b50600395945050505050565b60008281526009602090815260408083206001600160a01b038516845260030190915290205460ff165b92915050565b600080610f0e86868686611942565b90506000610f1b82610d8d565b6007811115610f2c57610f2c613827565b14610f795760405162461bcd60e51b815260206004820152601c60248201527f476f7665726e6f723a20746f6f206c61746520746f2063616e63656c0000000060448201526064016102dc565b6000818152600360205260409020546801000000000000000090046001600160a01b0316336001600160a01b031614610fff5760405162461bcd60e51b815260206004820152602260248201527f476f7665726e6f723a206f6e6c792070726f706f7365722063616e2063616e63604482015261195b60f21b60648201526084016102dc565b6109ea868686866122c3565b60607f00000000000000000000000000000000000000000000000000000000000000006001600160a01b0316634bf5d7e96040518163ffffffff1660e01b8152600401600060405180830381865afa92505050801561108c57506040513d6000823e601f3d908101601f191682016040526110899190810190613ce4565b60015b6110c8575060408051808201909152601d81527f6d6f64653d626c6f636b6e756d6265722666726f6d3d64656661756c74000000602082015290565b919050565b6000803390506110ee8482856040518060200160405280600081525061224a565b949350505050565b600080339050610d8287828888888080601f0160208091040260200160405190810160405280939291908181526020018383808284376000920191909152508a9250611d7a915050565b600b54600090808203611157575050600a54919050565b6000600b611166600184613d68565b8154811061117657611176613d7b565b60009182526020918290206040805180820190915291015463ffffffff81168083526401000000009091046001600160e01b031692820192909252915084106111cd57602001516001600160e01b03169392505050565b6111e16111d985611bd2565b600b906123e1565b6001600160e01b0316949350505050565b33301461123c5760405162461bcd60e51b8152602060048201526018602482015277476f7665726e6f723a206f6e6c79476f7665726e616e636560401b60448201526064016102dc565b611253565b8061124c6004611ed0565b0361124157505b610b5681612487565b6000803390506109ea86828787878080601f01602080910402602001604051908101604052809392919081815260200183838082843760009201919091525061224a92505050565b6000336112b181846124c8565b6112fd5760405162461bcd60e51b815260206004820152601d60248201527f476f7665726e6f723a2070726f706f736572207265737472696374656400000060448201526064016102dc565b6000611307611781565b65ffffffffffff1690506000611322836108b2600185613d68565b10156113965760405162461bcd60e51b815260206004820152603160248201527f476f7665726e6f723a2070726f706f73657220766f7465732062656c6f77207060448201527f726f706f73616c207468726573686f6c6400000000000000000000000000000060648201526084016102dc565b60006113ab8888888880519060200120611942565b905086518851146114085760405162461bcd60e51b815260206004820152602160248201527f476f7665726e6f723a20696e76616c69642070726f706f73616c206c656e67746044820152600d60fb1b60648201526084016102dc565b85518851146114635760405162461bcd60e51b815260206004820152602160248201527f476f7665726e6f723a20696e76616c69642070726f706f73616c206c656e67746044820152600d60fb1b60648201526084016102dc565b60008851116114b45760405162461bcd60e51b815260206004820152601860248201527f476f7665726e6f723a20656d7074792070726f706f73616c000000000000000060448201526064016102dc565b60008181526003602052604090205467ffffffffffffffff16156115245760405162461bcd60e51b815260206004820152602160248201527f476f7665726e6f723a2070726f706f73616c20616c72656164792065786973746044820152607360f81b60648201526084016102dc565b6000611531600184613d91565b9050600061153e60075490565b6115489083613d91565b90506040518060e0016040528061155e846125fa565b67ffffffffffffffff1681526001600160a01b03871660208201526000604082015260600161158c836125fa565b67ffffffffffffffff9081168252600060208084018290526040808501839052606094850183905288835260038252918290208551815492870151878501519186166001600160e01b031990941693909317680100000000000000006001600160a01b039094168402176001600160e01b0316600160e01b60e09290921c91909102178155938501516080860151908416921c0217600183015560a08301516002909201805460c09094015161ffff1990941692151561ff00191692909217610100931515939093029290921790558a517f7d84a6263ae0d98d3329bd7b46bb4e8d6f98cd35a7adb45c274c8b7fd5ebd5e091859188918e918e918111156116965761169661336e565b6040519080825280602002602001820160405280156116c957816020015b60608152602001906001900390816116b45790505b508d88888f6040516116e399989796959493929190613e32565b60405180910390a1509098975050505050505050565b60006060808280808361172c7f00000000000000000000000000000000000000000000000000000000000000008361267a565b6117577f0000000000000000000000000000000000000000000000000000000000000000600161267a565b60408051600080825260208201909252600f60f81b9b939a50919850469750309650945092509050565b60007f00000000000000000000000000000000000000000000000000000000000000006001600160a01b03166391ddadf46040518163ffffffff1660e01b8152600401602060405180830381865afa9250505080156117fd575060408051601f3d908101601f191682019092526117fa91810190613f0a565b60015b6110c85761180a43611cb1565b905090565b600061181c84848461271e565b90505b9392505050565b600b54600090156118495761183b600b611c69565b6001600160e01b0316905090565b50600a5490565b33301461189a5760405162461bcd60e51b8152602060048201526018602482015277476f7665726e6f723a206f6e6c79476f7665726e616e636560401b60448201526064016102dc565b6118b1565b806118aa6004611ed0565b0361189f57505b600080856001600160a01b03168585856040516118cf929190613c9a565b60006040518083038185875af1925050503d806000811461190c576040519150601f19603f3d011682016040523d82523d6000602084013e611911565b606091505b509150915061193982826040518060600160405280602881526020016141b8602891396127b4565b50505050505050565b60008484848460405160200161195b9493929190613f32565b60408051601f19818403018152919052805160209091012095945050505050565b3330146119c65760405162461bcd60e51b8152602060048201526018602482015277476f7665726e6f723a206f6e6c79476f7665726e616e636560401b60448201526064016102dc565b6119dd565b806119d66004611ed0565b036119cb57505b610b56816127cd565b600061181f8383611a0260408051602081019091526000815290565b61271e565b333014611a515760405162461bcd60e51b8152602060048201526018602482015277476f7665726e6f723a206f6e6c79476f7665726e616e636560401b60448201526064016102dc565b611a68565b80611a616004611ed0565b03611a5657505b610b5681612884565b60006064611a7e83611140565b604051632394e7a360e21b8152600481018590527f00000000000000000000000000000000000000000000000000000000000000006001600160a01b031690638e539e8c90602401602060405180830381865afa158015611ae3573d6000803e3d6000fd5b505050506040513d601f19601f82011682018060405250810190611b079190613f7d565b611b119190613f96565b610ef99190613fc3565b6000602083511015611b3757611b30836128c5565b9050610ef9565b81611b428482614030565b5060ff9050610ef9565b90565b60006001600160e01b03821115611bce5760405162461bcd60e51b815260206004820152602760248201527f53616665436173743a2076616c756520646f65736e27742066697420696e203260448201527f323420626974730000000000000000000000000000000000000000000000000060648201526084016102dc565b5090565b600063ffffffff821115611bce5760405162461bcd60e51b815260206004820152602660248201527f53616665436173743a2076616c756520646f65736e27742066697420696e203360448201527f322062697473000000000000000000000000000000000000000000000000000060648201526084016102dc565b600080611c5c858585612903565b915091505b935093915050565b80546000908015611ca857611c9183611c83600184613d68565b600091825260209091200190565b5464010000000090046001600160e01b031661181f565b60009392505050565b600065ffffffffffff821115611bce5760405162461bcd60e51b815260206004820152602660248201527f53616665436173743a2076616c756520646f65736e27742066697420696e203460448201527f382062697473000000000000000000000000000000000000000000000000000060648201526084016102dc565b6000610ef9611d3c612aa6565b8360405161190160f01b8152600281019290925260228201526042902090565b6000806000611d6d87878787612bd1565b91509150610d0d81612c95565b60008581526003602052604081206001611d9388610d8d565b6007811115611da457611da4613827565b14611dfd5760405162461bcd60e51b815260206004820152602360248201527f476f7665726e6f723a20766f7465206e6f742063757272656e746c792061637460448201526269766560e81b60648201526084016102dc565b8054600090611e1890889067ffffffffffffffff168661271e565b9050611e278888888488612ddf565b8351600003611e7c57866001600160a01b03167fb8e138887d0aa13bab447e82de9d5c1777041ecd21ca36ba824ff1e6c07ddda489888489604051611e6f94939291906140f0565b60405180910390a2610d82565b866001600160a01b03167fe2babfbac5889a709b63bb7f598b324e08bc5a4fb9ec647fb3cbc9ec07eb87128988848989604051611ebd959493929190614118565b60405180910390a2979650505050505050565b6000611eeb8254600f81810b600160801b909204900b131590565b15611f0957604051631ed9509560e11b815260040160405180910390fd5b508054600f0b6000818152600180840160205260408220805492905583546fffffffffffffffffffffffffffffffff191692016fffffffffffffffffffffffffffffffff169190911790915590565b6064811115611fdb5760405162461bcd60e51b815260206004820152604360248201527f476f7665726e6f72566f74657351756f72756d4672616374696f6e3a2071756f60448201527f72756d4e756d657261746f72206f7665722071756f72756d44656e6f6d696e616064820152623a37b960e91b608482015260a4016102dc565b6000611fe5611826565b90508015801590611ff65750600b54155b1561205b576040805180820190915260008152600b906020810161201984611b4f565b6001600160e01b0390811690915282546001810184556000938452602093849020835194909301519091166401000000000263ffffffff909316929092179101555b612088612076612069611781565b65ffffffffffff16611bd2565b61207f84611b4f565b600b9190611c4e565b505060408051828152602081018490527f0553476bf02ef2726e8ce5ced78d63e26e602e4a2257b1f559418e24b4633997910160405180910390a15050565b61214d565b845181101561214b57306001600160a01b03168582815181106120f1576120f1613d7b565b60200260200101516001600160a01b03160361213b5761213b83828151811061211c5761211c613d7b565b6020026020010151805190602001206004612f7790919063ffffffff16565b6121448161415e565b90506120cc565b505b5050505050565b60006040518060600160405280602781526020016141e060279139905060005b85518110156119395760008087838151811061219257612192613d7b565b60200260200101516001600160a01b03168784815181106121b5576121b5613d7b565b60200260200101518785815181106121cf576121cf613d7b565b60200260200101516040516121e49190614177565b60006040518083038185875af1925050503d8060008114612221576040519150601f19603f3d011682016040523d82523d6000602084013e612226565b606091505b50915091506122368282866127b4565b505050806122439061415e565b9050612174565b600061226d8585858561226860408051602081019091526000815290565b611d7a565b95945050505050565b6000818152600960205260408120600281015460018201546122989190613d91565b6000848152600360205260409020546122ba9067ffffffffffffffff16611a71565b11159392505050565b6000806122d286868686611942565b905060006122df82610d8d565b905060028160078111156122f5576122f5613827565b141580156123155750600681600781111561231257612312613827565b14155b80156123335750600781600781111561233057612330613827565b14155b61237f5760405162461bcd60e51b815260206004820152601d60248201527f476f7665726e6f723a2070726f706f73616c206e6f742061637469766500000060448201526064016102dc565b60008281526003602052604090819020600201805461ff001916610100179055517f789cf55be980739dad1d0699b93b58e806b51c9d96619bfa8fe0a28abaa7b30c906123cf9084815260200190565b60405180910390a15095945050505050565b81546000908181600581111561243e5760006123fc84612fbc565b6124069085613d68565b60008881526020902090915081015463ffffffff908116908716101561242e5780915061243c565b612439816001613d91565b92505b505b600061244c878785856130a4565b9050801561247a5761246387611c83600184613d68565b5464010000000090046001600160e01b0316610d82565b6000979650505050505050565b60065460408051918252602082018390527fc565b045403dc03c2eea82b81a0465edad9e2e7fc4d97e11421c209da93d7a93910160405180910390a1600655565b805160009060348110156124e0576001915050610ef9565b82810160131901517fffffffffffffffffffffffff000000000000000000000000000000000000000081167f2370726f706f7365723d307800000000000000000000000000000000000000001461253c57600192505050610ef9565b60008061254a602885613d68565b90505b838110156125d95760008061259988848151811061256d5761256d613d7b565b01602001517fff0000000000000000000000000000000000000000000000000000000000000016613102565b91509150816125b15760019650505050505050610ef9565b8060ff166004856001600160a01b0316901b1793505050806125d29061415e565b905061254d565b50856001600160a01b0316816001600160a01b031614935050505092915050565b600067ffffffffffffffff821115611bce5760405162461bcd60e51b815260206004820152602660248201527f53616665436173743a2076616c756520646f65736e27742066697420696e203660448201527f342062697473000000000000000000000000000000000000000000000000000060648201526084016102dc565b606060ff831461268d57611b3083613194565b81805461269990613caa565b80601f01602080910402602001604051908101604052809291908181526020018280546126c590613caa565b80156127125780601f106126e757610100808354040283529160200191612712565b820191906000526020600020905b8154815290600101906020018083116126f557829003601f168201915b50505050509050610ef9565b604051630748d63560e31b81526001600160a01b038481166004830152602482018490526000917f000000000000000000000000000000000000000000000000000000000000000090911690633a46b1a890604401602060405180830381865afa158015612790573d6000803e3d6000fd5b505050506040513d601f19601f8201168201806040525081019061181c9190613f7d565b606083156127c357508161181f565b61181f83836131d3565b600081116128435760405162461bcd60e51b815260206004820152602760248201527f476f7665726e6f7253657474696e67733a20766f74696e6720706572696f642060448201527f746f6f206c6f770000000000000000000000000000000000000000000000000060648201526084016102dc565b60075460408051918252602082018390527f7e3f7f0708a84de9203036abaa450dccc85ad5ff52f78c170f3edb55cf5e8828910160405180910390a1600755565b60085460408051918252602082018390527fccb45da8d5717e6c4544694297c4ba5cf151d455c9bb0ed4fc7a38411bc05461910160405180910390a1600855565b600080829050601f815111156128f0578260405163305a27a960e01b81526004016102dc919061354b565b80516128fb82614193565b179392505050565b825460009081908015612a4c57600061292187611c83600185613d68565b60408051808201909152905463ffffffff8082168084526401000000009092046001600160e01b0316602084015291925090871610156129a35760405162461bcd60e51b815260206004820152601b60248201527f436865636b706f696e743a2064656372656173696e67206b657973000000000060448201526064016102dc565b805163ffffffff8088169116036129ec57846129c488611c83600186613d68565b80546001600160e01b03929092166401000000000263ffffffff909216919091179055612a3c565b6040805180820190915263ffffffff80881682526001600160e01b0380881660208085019182528b54600181018d5560008d81529190912094519151909216640100000000029216919091179101555b602001519250839150611c619050565b50506040805180820190915263ffffffff80851682526001600160e01b0380851660208085019182528854600181018a5560008a815291822095519251909316640100000000029190931617920191909155905081611c61565b6000306001600160a01b037f000000000000000000000000000000000000000000000000000000000000000016148015612aff57507f000000000000000000000000000000000000000000000000000000000000000046145b15612b2957507f000000000000000000000000000000000000000000000000000000000000000090565b61180a604080517f8b73c3c69bb8fe3d512ecc4cf759cc79239f7b179b0ffacaa9a75d522b39400f60208201527f0000000000000000000000000000000000000000000000000000000000000000918101919091527f000000000000000000000000000000000000000000000000000000000000000060608201524660808201523060a082015260009060c00160405160208183030381529060405280519060200120905090565b6000807f7fffffffffffffffffffffffffffffff5d576e7357a4501ddfe92f46681b20a0831115612c085750600090506003612c8c565b6040805160008082526020820180845289905260ff881692820192909252606081018690526080810185905260019060a0016020604051602081039080840390855afa158015612c5c573d6000803e3d6000fd5b5050604051601f1901519150506001600160a01b038116612c8557600060019250925050612c8c565b9150600090505b94509492505050565b6000816004811115612ca957612ca9613827565b03612cb15750565b6001816004811115612cc557612cc5613827565b03612d125760405162461bcd60e51b815260206004820152601860248201527f45434453413a20696e76616c6964207369676e6174757265000000000000000060448201526064016102dc565b6002816004811115612d2657612d26613827565b03612d735760405162461bcd60e51b815260206004820152601f60248201527f45434453413a20696e76616c6964207369676e6174757265206c656e6774680060448201526064016102dc565b6003816004811115612d8757612d87613827565b03610b565760405162461bcd60e51b815260206004820152602260248201527f45434453413a20696e76616c6964207369676e6174757265202773272076616c604482015261756560f01b60648201526084016102dc565b60008581526009602090815260408083206001600160a01b0388168452600381019092529091205460ff1615612e7d5760405162461bcd60e51b815260206004820152602760248201527f476f7665726e6f72566f74696e6753696d706c653a20766f746520616c72656160448201527f647920636173740000000000000000000000000000000000000000000000000060648201526084016102dc565b6001600160a01b03851660009081526003820160205260409020805460ff1916600117905560ff8416612ec95782816000016000828254612ebe9190613d91565b9091555061214b9050565b60001960ff851601612ee95782816001016000828254612ebe9190613d91565b60011960ff851601612f095782816002016000828254612ebe9190613d91565b60405162461bcd60e51b815260206004820152603560248201527f476f7665726e6f72566f74696e6753696d706c653a20696e76616c696420766160448201527f6c756520666f7220656e756d20566f746554797065000000000000000000000060648201526084016102dc565b8154600160801b90819004600f0b6000818152600180860160205260409091209390935583546fffffffffffffffffffffffffffffffff908116939091011602179055565b600081600003612fce57506000919050565b60006001612fdb846131fd565b901c6001901b90506001818481612ff457612ff4613fad565b048201901c9050600181848161300c5761300c613fad565b048201901c9050600181848161302457613024613fad565b048201901c9050600181848161303c5761303c613fad565b048201901c9050600181848161305457613054613fad565b048201901c9050600181848161306c5761306c613fad565b048201901c9050600181848161308457613084613fad565b048201901c905061181f8182858161309e5761309e613fad565b04613291565b60005b818310156130fa5760006130bb84846132a7565b60008781526020902090915063ffffffff86169082015463ffffffff1611156130e6578092506130f4565b6130f1816001613d91565b93505b506130a7565b509392505050565b60008060f883901c602f8111801561311d5750603a8160ff16105b1561313257600194602f199091019350915050565b8060ff166040108015613148575060478160ff16105b1561315d576001946036199091019350915050565b8060ff166060108015613173575060678160ff16105b15613188576001946056199091019350915050565b50600093849350915050565b606060006131a1836132c2565b604080516020808252818301909252919250600091906020820181803683375050509182525060208101929092525090565b8151156131e35781518083602001fd5b8060405162461bcd60e51b81526004016102dc919061354b565b600080608083901c1561321257608092831c92015b604083901c1561322457604092831c92015b602083901c1561323657602092831c92015b601083901c1561324857601092831c92015b600883901c1561325a57600892831c92015b600483901c1561326c57600492831c92015b600283901c1561327e57600292831c92015b600183901c15610ef95760010192915050565b60008183106132a0578161181f565b5090919050565b60006132b66002848418613fc3565b61181f90848416613d91565b600060ff8216601f811115610ef957604051632cd44ac360e21b815260040160405180910390fd5b6000602082840312156132fc57600080fd5b81356001600160e01b03198116811461181f57600080fd5b803560ff811681146110c857600080fd5b60008083601f84011261333757600080fd5b50813567ffffffffffffffff81111561334f57600080fd5b60208301915083602082850101111561336757600080fd5b9250929050565b634e487b7160e01b600052604160045260246000fd5b604051601f8201601f1916810167ffffffffffffffff811182821017156133ad576133ad61336e565b604052919050565b600067ffffffffffffffff8211156133cf576133cf61336e565b50601f01601f191660200190565b60006133f06133eb846133b5565b613384565b905082815283838301111561340457600080fd5b828260208301376000602084830101529392505050565b600082601f83011261342c57600080fd5b61181f838335602085016133dd565b60008060008060008060008060e0898b03121561345757600080fd5b8835975061346760208a01613314565b9650604089013567ffffffffffffffff8082111561348457600080fd5b6134908c838d01613325565b909850965060608b01359150808211156134a957600080fd5b506134b68b828c0161341b565b9450506134c560808a01613314565b925060a0890135915060c089013590509295985092959890939650565b6000602082840312156134f457600080fd5b5035919050565b60005b838110156135165781810151838201526020016134fe565b50506000910152565b600081518084526135378160208601602086016134fb565b601f01601f19169290920160200192915050565b60208152600061181f602083018461351f565b80356001600160a01b03811681146110c857600080fd5b6000806000806080858703121561358b57600080fd5b6135948561355e565b93506135a26020860161355e565b925060408501359150606085013567ffffffffffffffff8111156135c557600080fd5b6135d18782880161341b565b91505092959194509250565b600067ffffffffffffffff8211156135f7576135f761336e565b5060051b60200190565b600082601f83011261361257600080fd5b813560206136226133eb836135dd565b82815260059290921b8401810191818101908684111561364157600080fd5b8286015b84811015613663576136568161355e565b8352918301918301613645565b509695505050505050565b600082601f83011261367f57600080fd5b8135602061368f6133eb836135dd565b82815260059290921b840181019181810190868411156136ae57600080fd5b8286015b8481101561366357803583529183019183016136b2565b600082601f8301126136da57600080fd5b813560206136ea6133eb836135dd565b82815260059290921b8401810191818101908684111561370957600080fd5b8286015b8481101561366357803567ffffffffffffffff81111561372d5760008081fd5b61373b8986838b010161341b565b84525091830191830161370d565b6000806000806080858703121561375f57600080fd5b843567ffffffffffffffff8082111561377757600080fd5b61378388838901613601565b9550602087013591508082111561379957600080fd5b6137a58883890161366e565b945060408701359150808211156137bb57600080fd5b506137c8878288016136c9565b949793965093946060013593505050565b600080600080600060a086880312156137f157600080fd5b8535945061380160208701613314565b935061380f60408701613314565b94979396509394606081013594506080013592915050565b634e487b7160e01b600052602160045260246000fd5b602081016008831061385f57634e487b7160e01b600052602160045260246000fd5b91905290565b6000806040838503121561387857600080fd5b823591506138886020840161355e565b90509250929050565b600080604083850312156138a457600080fd5b8235915061388860208401613314565b6000806000806000608086880312156138cc57600080fd5b853594506138dc60208701613314565b9350604086013567ffffffffffffffff808211156138f957600080fd5b61390589838a01613325565b9095509350606088013591508082111561391e57600080fd5b5061392b8882890161341b565b9150509295509295909350565b6000806000806060858703121561394e57600080fd5b8435935061395e60208601613314565b9250604085013567ffffffffffffffff81111561397a57600080fd5b61398687828801613325565b95989497509550505050565b600080600080608085870312156139a857600080fd5b843567ffffffffffffffff808211156139c057600080fd5b6139cc88838901613601565b955060208701359150808211156139e257600080fd5b6139ee8883890161366e565b94506040870135915080821115613a0457600080fd5b613a10888389016136c9565b93506060870135915080821115613a2657600080fd5b508501601f81018713613a3857600080fd5b6135d1878235602084016133dd565b600081518084526020808501945080840160005b83811015613a7757815187529582019590820190600101613a5b565b509495945050505050565b60ff60f81b8816815260e060208201526000613aa160e083018961351f565b8281036040840152613ab3818961351f565b90508660608401526001600160a01b03861660808401528460a084015282810360c0840152610ade8185613a47565b600080600060608486031215613af757600080fd5b613b008461355e565b925060208401359150604084013567ffffffffffffffff811115613b2357600080fd5b613b2f8682870161341b565b9150509250925092565b600080600080600060a08688031215613b5157600080fd5b613b5a8661355e565b9450613b686020870161355e565b9350604086013567ffffffffffffffff80821115613b8557600080fd5b613b9189838a0161366e565b94506060880135915080821115613ba757600080fd5b613bb389838a0161366e565b9350608088013591508082111561391e57600080fd5b60008060008060608587031215613bdf57600080fd5b613be88561355e565b935060208501359250604085013567ffffffffffffffff81111561397a57600080fd5b60008060408385031215613c1e57600080fd5b613c278361355e565b946020939093013593505050565b600080600080600060a08688031215613c4d57600080fd5b613c568661355e565b9450613c646020870161355e565b93506040860135925060608601359150608086013567ffffffffffffffff811115613c8e57600080fd5b61392b8882890161341b565b8183823760009101908152919050565b600181811c90821680613cbe57607f821691505b602082108103613cde57634e487b7160e01b600052602260045260246000fd5b50919050565b600060208284031215613cf657600080fd5b815167ffffffffffffffff811115613d0d57600080fd5b8201601f81018413613d1e57600080fd5b8051613d2c6133eb826133b5565b818152856020838501011115613d4157600080fd5b61226d8260208301602086016134fb565b634e487b7160e01b600052601160045260246000fd5b81810381811115610ef957610ef9613d52565b634e487b7160e01b600052603260045260246000fd5b80820180821115610ef957610ef9613d52565b600081518084526020808501945080840160005b83811015613a775781516001600160a01b031687529582019590820190600101613db8565b600081518084526020808501808196508360051b8101915082860160005b85811015613e25578284038952613e1384835161351f565b98850198935090840190600101613dfb565b5091979650505050505050565b60006101208b835260206001600160a01b038c1681850152816040850152613e5c8285018c613da4565b91508382036060850152613e70828b613a47565b915083820360808501528189518084528284019150828160051b850101838c0160005b83811015613ec157601f19878403018552613eaf83835161351f565b94860194925090850190600101613e93565b505086810360a0880152613ed5818c613ddd565b9450505050508560c08401528460e0840152828103610100840152613efa818561351f565b9c9b505050505050505050505050565b600060208284031215613f1c57600080fd5b815165ffffffffffff8116811461181f57600080fd5b608081526000613f456080830187613da4565b8281036020840152613f578187613a47565b90508281036040840152613f6b8186613ddd565b91505082606083015295945050505050565b600060208284031215613f8f57600080fd5b5051919050565b8082028115828204841417610ef957610ef9613d52565b634e487b7160e01b600052601260045260246000fd5b600082613fe057634e487b7160e01b600052601260045260246000fd5b500490565b601f82111561402b57600081815260208120601f850160051c8101602086101561400c5750805b601f850160051c820191505b8181101561214b57828155600101614018565b505050565b815167ffffffffffffffff81111561404a5761404a61336e565b61405e816140588454613caa565b84613fe5565b602080601f831160018114614093576000841561407b5750858301515b600019600386901b1c1916600185901b17855561214b565b600085815260208120601f198616915b828110156140c2578886015182559484019460019091019084016140a3565b50858210156140e05787850151600019600388901b60f8161c191681555b5050505050600190811b01905550565b84815260ff841660208201528260408201526080606082015260006109ea608083018461351f565b85815260ff8516602082015283604082015260a06060820152600061414060a083018561351f565b8281036080840152614152818561351f565b98975050505050505050565b60006001820161417057614170613d52565b5060010190565b600082516141898184602087016134fb565b9190910192915050565b80516020808301519190811015613cde5760001960209190910360031b1b1691905056fe476f7665726e6f723a2072656c617920726576657274656420776974686f7574206d657373616765476f7665726e6f723a2063616c6c20726576657274656420776974686f7574206d657373616765a26469706673582212205dcef312aa618783c9be52055552b801bde809dc66fb511145c6cab6cc4f678a64736f6c63430008120033",
    "linkReferences": {}
  },
  "methodIdentifiers": {
    "BALLOT_TYPEHASH()": "deaaa7cc",
    "CLOCK_MODE()": "4bf5d7e9",
    "COUNTING_MODE()": "dd4e2ba5",
    "EXTENDED_BALLOT_TYPEHASH()": "2fe3e261",
    "cancel(address[],uint256[],bytes[],bytes32)": "452115d6",
    "castVote(uint256,uint8)": "56781388",
    "castVoteBySig(uint256,uint8,uint8,bytes32,bytes32)": "3bccf4fd",
    "castVoteWithReason(uint256,uint8,string)": "7b3c71d3",
    "castVoteWithReasonAndParams(uint256,uint8,string,bytes)": "5f398a14",
    "castVoteWithReasonAndParamsBySig(uint256,uint8,string,bytes,uint8,bytes32,bytes32)": "03420181",
    "clock()": "91ddadf4",
    "eip712Domain()": "84b0196e",
    "execute(address[],uint256[],bytes[],bytes32)": "2656227d",
    "getVotes(address,uint256)": "eb9019d4",
    "getVotesWithParams(address,uint256,bytes)": "9a802a6d",
    "hasVoted(uint256,address)": "43859632",
    "hashProposal(address[],uint256[],bytes[],bytes32)": "c59057e4",
    "name()": "06fdde03",
    "onERC1155BatchReceived(address,address,uint256[],uint256[],bytes)": "bc197c81",
    "onERC1155Received(address,address,uint256,uint256,bytes)": "f23a6e61",
    "onERC721Received(address,address,uint256,bytes)": "150b7a02",
    "proposalDeadline(uint256)": "c01f9e37",
    "proposalProposer(uint256)": "143489d0",
    "proposalSnapshot(uint256)": "2d63f693",
    "proposalThreshold()": "b58131b0",
    "proposalVotes(uint256)": "544ffc9c",
    "propose(address[],uint256[],bytes[],string)": "7d5e81e2",
    "quorum(uint256)": "f8ce560a",
    "quorumDenominator()": "97c3d334",
    "quorumNumerator()": "a7713a70",
    "quorumNumerator(uint256)": "60c4247f",
    "relay(address,uint256,bytes)": "c28bc2fa",
    "setProposalThreshold(uint256)": "ece40cc1",
    "setVotingDelay(uint256)": "70b0f660",
    "setVotingPeriod(uint256)": "ea0217cf",
    "state(uint256)": "3e4f49e6",
    "supportsInterface(bytes4)": "01ffc9a7",
    "token()": "fc0c546a",
    "updateQuorumNumerator(uint256)": "06f3f9e6",
    "version()": "54fd4d50",
    "votingDelay()": "3932abb1",
    "votingPeriod()": "02a251a3"
  },
  "id": 34
}