{
  "abi": [
    {
      "inputs": [],
      "stateMutability": "nonpayable",
      "type": "constructor"
    },
    {
      "inputs": [],
      "name": "InvalidShortString",
      "type": "error"
    },
    {
      "inputs": [
        {
          "internalType": "string",
          "name": "str",
          "type": "string"
        }
      ],
      "name": "StringTooLong",
      "type": "error"
    },
    {
      "anonymous": false,
      "inputs": [
        {
          "indexed": true,
          "internalType": "address",
          "name": "owner",
          "type": "address"
        },
        {
          "indexed": true,
          "internalType": "address",
          "name": "spender",
          "type": "address"
        },
        {
          "indexed": false,
          "internalType": "uint256",
          "name": "value",
          "type": "uint256"
        }
      ],
      "name": "Approval",
      "type": "event"
    },
    {
      "anonymous": false,
      "inputs": [
        {
          "indexed": true,
          "internalType": "address",
          "name": "delegator",
          "type": "address"
        },
        {
          "indexed": true,
          "internalType": "address",
          "name": "fromDelegate",
          "type": "address"
        },
        {
          "indexed": true,
          "internalType": "address",
          "name": "toDelegate",
          "type": "address"
        }
      ],
      "name": "DelegateChanged",
      "type": "event"
    },
    {
      "anonymous": false,
      "inputs": [
        {
          "indexed": true,
          "internalType": "address",
          "name": "delegate",
          "type": "address"
        },
        {
          "indexed": false,
          "internalType": "uint256",
          "name": "previousBalance",
          "type": "uint256"
        },
        {
          "indexed": false,
          "internalType": "uint256",
          "name": "newBalance",
          "type": "uint256"
        }
      ],
      "name": "DelegateVotesChanged",
      "type": "event"
    },
    {
      "anonymous": false,
      "inputs": [],
      "name": "EIP712DomainChanged",
      "type": "event"
    },
    {
      "anonymous": false,
      "inputs": [
        {
          "indexed": true,
          "internalType": "address",
          "name": "from",
          "type": "address"
        },
        {
          "indexed": true,
          "internalType": "address",
          "name": "to",
          "type": "address"
        },
        {
          "indexed": false,
          "internalType": "uint256",
          "name": "value",
          "type": "uint256"
        }
      ],
      "name": "Transfer",
      "type": "event"
    },
    {
      "inputs": [],
      "name": "CLOCK_MODE",
      "outputs": [
        {
          "internalType": "string",
          "name": "",
          "type": "string"
        }
      ],
      "stateMutability": "view",
      "type": "function"
    },
    {
      "inputs": [],
      "name": "DOMAIN_SEPARATOR",
      "outputs": [
        {
          "internalType": "bytes32",
          "name": "",
          "type": "bytes32"
        }
      ],
      "stateMutability": "view",
      "type": "function"
    },
    {
      "inputs": [
        {
          "internalType": "address",
          "name": "owner",
          "type": "address"
        },
        {
          "internalType": "address",
          "name": "spender",
          "type": "address"
        }
      ],
      "name": "allowance",
      "outputs": [
        {
          "internalType": "uint256",
          "name": "",
          "type": "uint256"
        }
      ],
      "stateMutability": "view",
      "type": "function"
    },
    {
      "inputs": [
        {
          "internalType": "address",
          "name": "spender",
          "type": "address"
        },
        {
          "internalType": "uint256",
          "name": "amount",
          "type": "uint256"
        }
      ],
      "name": "approve",
      "outputs": [
        {
          "internalType": "bool",
          "name": "",
          "type": "bool"
        }
      ],
      "stateMutability": "nonpayable",
      "type": "function"
    },
    {
      "inputs": [
        {
          "internalType": "address",
          "name": "account",
          "type": "address"
        }
      ],
      "name": "balanceOf",
      "outputs": [
        {
          "internalType": "uint256",
          "name": "",
          "type": "uint256"
        }
      ],
      "stateMutability": "view",
      "type": "function"
    },
    {
      "inputs": [
        {
          "internalType": "address",
          "name": "account",
          "type": "address"
        },
        {
          "internalType": "uint32",
          "name": "pos",
          "type": "uint32"
        }
      ],
      "name": "checkpoints",
      "outputs": [
        {
          "components": [
            {
              "internalType": "uint32",
              "name": "fromBlock",
              "type": "uint32"
            },
            {
              "internalType": "uint224",
              "name": "votes",
              "type": "uint224"
            }
          ],
          "internalType": "struct ERC20Votes.Checkpoint",
          "name": "",
          "type": "tuple"
        }
      ],
      "stateMutability": "view",
      "type": "function"
    },
    {
      "inputs": [],
      "name": "clock",
      "outputs": [
        {
          "internalType": "uint48",
          "name": "",
          "type": "uint48"
        }
      ],
      "stateMutability": "view",
      "type": "function"
    },
    {
      "inputs": [],
      "name": "decimals",
      "outputs": [
        {
          "internalType": "uint8",
          "name": "",
          "type": "uint8"
        }
      ],
      "stateMutability": "view",
      "type": "function"
    },
    {
      "inputs": [
        {
          "internalType": "address",
          "name": "spender",
          "type": "address"
        },
        {
          "internalType": "uint256",
          "name": "subtractedValue",
          "type": "uint256"
        }
      ],
      "name": "decreaseAllowance",
      "outputs": [
        {
          "internalType": "bool",
          "name": "",
          "type": "bool"
        }
      ],
      "stateMutability": "nonpayable",
      "type": "function"
    },
    {
      "inputs": [
        {
          "internalType": "address",
          "name": "delegatee",
          "type": "address"
        }
      ],
      "name": "delegate",
      "outputs": [],
      "stateMutability": "nonpayable",
      "type": "function"
    },
    {
      "inputs": [
        {
          "internalType": "address",
          "name": "delegatee",
          "type": "address"
        },
        {
          "internalType": "uint256",
          "name": "nonce",
          "type": "uint256"
        },
        {
          "internalType": "uint256",
          "name": "expiry",
          "type": "uint256"
        },
        {
          "internalType": "uint8",
          "name": "v",
          "type": "uint8"
        },
        {
          "internalType": "bytes32",
          "name": "r",
          "type": "bytes32"
        },
        {
          "internalType": "bytes32",
          "name": "s",
          "type": "bytes32"
        }
      ],
      "name": "delegateBySig",
      "outputs": [],
      "stateMutability": "nonpayable",
      "type": "function"
    },
    {
      "inputs": [
        {
          "internalType": "address",
          "name": "account",
          "type": "address"
        }
      ],
      "name": "delegates",
      "outputs": [
        {
          "internalType": "address",
          "name": "",
          "type": "address"
        }
      ],
      "stateMutability": "view",
      "type": "function"
    },
    {
      "inputs": [],
      "name": "eip712Domain",
      "outputs": [
        {
          "internalType": "bytes1",
          "name": "fields",
          "type": "bytes1"
        },
        {
          "internalType": "string",
          "name": "name",
          "type": "string"
        },
        {
          "internalType": "string",
          "name": "version",
          "type": "string"
        },
        {
          "internalType": "uint256",
          "name": "chainId",
          "type": "uint256"
        },
        {
          "internalType": "address",
          "name": "verifyingContract",
          "type": "address"
        },
        {
          "internalType": "bytes32",
          "name": "salt",
          "type": "bytes32"
        },
        {
          "internalType": "uint256[]",
          "name": "extensions",
          "type": "uint256[]"
        }
      ],
      "stateMutability": "view",
      "type": "function"
    },
    {
      "inputs": [
        {
          "internalType": "uint256",
          "name": "timepoint",
          "type": "uint256"
        }
      ],
      "name": "getPastTotalSupply",
      "outputs": [
        {
          "internalType": "uint256",
          "name": "",
          "type": "uint256"
        }
      ],
      "stateMutability": "view",
      "type": "function"
    },
    {
      "inputs": [
        {
          "internalType": "address",
          "name": "account",
          "type": "address"
        },
        {
          "internalType": "uint256",
          "name": "timepoint",
          "type": "uint256"
        }
      ],
      "name": "getPastVotes",
      "outputs": [
        {
          "internalType": "uint256",
          "name": "",
          "type": "uint256"
        }
      ],
      "stateMutability": "view",
      "type": "function"
    },
    {
      "inputs": [
        {
          "internalType": "address",
          "name": "account",
          "type": "address"
        }
      ],
      "name": "getVotes",
      "outputs": [
        {
          "internalType": "uint256",
          "name": "",
          "type": "uint256"
        }
      ],
      "stateMutability": "view",
      "type": "function"
    },
    {
      "inputs": [
        {
          "internalType": "address",
          "name": "spender",
          "type": "address"
        },
        {
          "internalType": "uint256",
          "name": "addedValue",
          "type": "uint256"
        }
      ],
      "name": "increaseAllowance",
      "outputs": [
        {
          "internalType": "bool",
          "name": "",
          "type": "bool"
        }
      ],
      "stateMutability": "nonpayable",
      "type": "function"
    },
    {
      "inputs": [],
      "name": "name",
      "outputs": [
        {
          "internalType": "string",
          "name": "",
          "type": "string"
        }
      ],
      "stateMutability": "view",
      "type": "function"
    },
    {
      "inputs": [
        {
          "internalType": "address",
          "name": "owner",
          "type": "address"
        }
      ],
      "name": "nonces",
      "outputs": [
        {
          "internalType": "uint256",
          "name": "",
          "type": "uint256"
        }
      ],
      "stateMutability": "view",
      "type": "function"
    },
    {
      "inputs": [
        {
          "internalType": "address",
          "name": "account",
          "type": "address"
        }
      ],
      "name": "numCheckpoints",
      "outputs": [
        {
          "internalType": "uint32",
          "name": "",
          "type": "uint32"
        }
      ],
      "stateMutability": "view",
      "type": "function"
    },
    {
      "inputs": [
        {
          "internalType": "address",
          "name": "owner",
          "type": "address"
        },
        {
          "internalType": "address",
          "name": "spender",
          "type": "address"
        },
        {
          "internalType": "uint256",
          "name": "value",
          "type": "uint256"
        },
        {
          "internalType": "uint256",
          "name": "deadline",
          "type": "uint256"
        },
        {
          "internalType": "uint8",
          "name": "v",
          "type": "uint8"
        },
        {
          "internalType": "bytes32",
          "name": "r",
          "type": "bytes32"
        },
        {
          "internalType": "bytes32",
          "name": "s",
          "type": "bytes32"
        }
      ],
      "name": "permit",
      "outputs": [],
      "stateMutability": "nonpayable",
      "type": "function"
    },
    {
      "inputs": [],
      "name": "symbol",
      "outputs": [
        {
          "internalType": "string",
          "name": "",
          "type": "string"
        }
      ],
      "stateMutability": "view",
      "type": "function"
    },
    {
      "inputs": [],
      "name": "totalSupply",
      "outputs": [
        {
          "internalType": "uint256",
          "name": "",
          "type": "uint256"
        }
      ],
      "stateMutability": "view",
      "type": "function"
    },
    {
      "inputs": [
        {
          "internalType": "address",
          "name": "to",
          "type": "address"
        },
        {
          "internalType": "uint256",
          "name": "amount",
          "type": "uint256"
        }
      ],
      "name": "transfer",
      "outputs": [
        {
          "internalType": "bool",
          "name": "",
          "type": "bool"
        }
      ],
      "stateMutability": "nonpayable",
      "type": "function"
    },
    {
      "inputs": [
        {
          "internalType": "address",
          "name": "from",
          "type": "address"
        },
        {
          "internalType": "address",
          "name": "to",
          "type": "address"
        },
        {
          "internalType": "uint256",
          "name": "amount",
          "type": "uint256"
        }
      ],
      "name": "transferFrom",
      "outputs": [
        {
          "internalType": "bool",
          "name": "",
          "type": "bool"
        }
      ],
      "stateMutability": "nonpayable",
      "type": "function"
    }
  ],
  "bytecode": {
    "object": "0x6101606040523480156200001257600080fd5b506040518060400160405280600781526020016626bcaa37b5b2b760c91b81525080604051806040016040528060018152602001603160f81b8152506040518060400160405280600781526020016626bcaa37b5b2b760c91b815250604051806040016040528060038152602001624d544b60e81b81525081600390816200009b91906200095c565b506004620000aa82826200095c565b505050620000c8600583620001ac60201b62000c311790919060201c565b61012052620000e5816006620001ac602090811b62000c3117901c565b61014052815160208084019190912060e052815190820120610100524660a0526200017360e05161010051604080517f8b73c3c69bb8fe3d512ecc4cf759cc79239f7b179b0ffacaa9a75d522b39400f60208201529081019290925260608201524660808201523060a082015260009060c00160405160208183030381529060405280519060200120905090565b60805250503060c05250620001a633620001906012600a62000b3b565b620001a0906305f5e10062000b49565b620001fc565b62000c04565b6000602083511015620001cc57620001c48362000217565b9050620001f6565b82620001e3836200026360201b62000c621760201c565b90620001f090826200095c565b5060ff90505b92915050565b6200021382826200026660201b62000c651760201c565b5050565b600080829050601f815111156200024e578260405163305a27a960e01b815260040162000245919062000b63565b60405180910390fd5b80516200025b8262000bb3565b179392505050565b90565b6200027d82826200031960201b62000d021760201c565b6001600160e01b0362000291620003e68216565b1115620002fa5760405162461bcd60e51b815260206004820152603060248201527f4552433230566f7465733a20746f74616c20737570706c79207269736b73206f60448201526f766572666c6f77696e6720766f74657360801b606482015260840162000245565b62000313600b62000dcd620003ec60201b178362000401565b50505050565b6001600160a01b038216620003715760405162461bcd60e51b815260206004820152601f60248201527f45524332303a206d696e7420746f20746865207a65726f206164647265737300604482015260640162000245565b806002600082825462000385919062000bd8565b90915550506001600160a01b038216600081815260208181526040808320805486019055518481527fddf252ad1be2c89b69c2b068fc378daa952ba7f163c4a11628f55a4df523b3ef910160405180910390a36200021360008383620005af565b60025490565b6000620003fa828462000bd8565b9392505050565b82546000908190818115620004505760008781526020902082016000190160408051808201909152905463ffffffff8116825264010000000090046001600160e01b0316602082015262000465565b60408051808201909152600080825260208201525b905080602001516001600160e01b031693506200048384868860201c565b9250600082118015620004b057506200049b620005c7565b65ffffffffffff16816000015163ffffffff16145b156200050457620004cc83620005e460201b62000dd91760201c565b60008881526020902083016000190180546001600160e01b03929092166401000000000263ffffffff909216919091179055620005a0565b8660405180604001604052806200053d62000524620005c760201b60201c565b65ffffffffffff166200065360201b62000e5c1760201c565b63ffffffff1681526020016200055e86620005e460201b62000dd91760201c565b6001600160e01b0390811690915282546001810184556000938452602093849020835194909301519091166401000000000263ffffffff909316929092179101555b5050935093915050565b505050565b620005aa838383620006ba60201b62000ed81760201c565b6000620005df436200070660201b62000f0f1760201c565b905090565b60006001600160e01b038211156200064f5760405162461bcd60e51b815260206004820152602760248201527f53616665436173743a2076616c756520646f65736e27742066697420696e20326044820152663234206269747360c81b606482015260840162000245565b5090565b600063ffffffff8211156200064f5760405162461bcd60e51b815260206004820152602660248201527f53616665436173743a2076616c756520646f65736e27742066697420696e203360448201526532206269747360d01b606482015260840162000245565b620006d2838383620005aa60201b62000f0a1760201c565b6001600160a01b03838116600090815260096020526040808220548584168352912054620005aa929182169116836200076f565b600065ffffffffffff8211156200064f5760405162461bcd60e51b815260206004820152602660248201527f53616665436173743a2076616c756520646f65736e27742066697420696e203460448201526538206269747360d01b606482015260840162000245565b816001600160a01b0316836001600160a01b031614158015620007925750600081115b15620005aa576001600160a01b038316156200081f576001600160a01b0383166000908152600a6020908152604082208291620007dc9190620008aa901b62000f8d178562000401565b91509150846001600160a01b031660008051602062002fa1833981519152838360405162000814929190918252602082015260400190565b60405180910390a250505b6001600160a01b03821615620005aa576001600160a01b0382166000908152600a6020908152604082208291620008639190620003ec901b62000dcd178562000401565b91509150836001600160a01b031660008051602062002fa183398151915283836040516200089b929190918252602082015260400190565b60405180910390a25050505050565b6000620003fa828462000bee565b634e487b7160e01b600052604160045260246000fd5b600181811c90821680620008e357607f821691505b6020821081036200090457634e487b7160e01b600052602260045260246000fd5b50919050565b601f821115620005aa57600081815260208120601f850160051c81016020861015620009335750805b601f850160051c820191505b8181101562000954578281556001016200093f565b505050505050565b81516001600160401b03811115620009785762000978620008b8565b6200099081620009898454620008ce565b846200090a565b602080601f831160018114620009c85760008415620009af5750858301515b600019600386901b1c1916600185901b17855562000954565b600085815260208120601f198616915b82811015620009f957888601518255948401946001909101908401620009d8565b508582101562000a185787850151600019600388901b60f8161c191681555b5050505050600190811b01905550565b634e487b7160e01b600052601160045260246000fd5b600181815b8085111562000a7f57816000190482111562000a635762000a6362000a28565b8085161562000a7157918102915b93841c939080029062000a43565b509250929050565b60008262000a9857506001620001f6565b8162000aa757506000620001f6565b816001811462000ac0576002811462000acb5762000aeb565b6001915050620001f6565b60ff84111562000adf5762000adf62000a28565b50506001821b620001f6565b5060208310610133831016604e8410600b841016171562000b10575081810a620001f6565b62000b1c838362000a3e565b806000190482111562000b335762000b3362000a28565b029392505050565b6000620003fa838362000a87565b8082028115828204841417620001f657620001f662000a28565b600060208083528351808285015260005b8181101562000b925785810183015185820160400152820162000b74565b506000604082860101526040601f19601f8301168501019250505092915050565b80516020808301519190811015620009045760001960209190910360031b1b16919050565b80820180821115620001f657620001f662000a28565b81810381811115620001f657620001f662000a28565b60805160a05160c05160e05161010051610120516101405161234262000c5f6000396000610704015260006106d9015260006113fc015260006113d40152600061132f015260006113590152600061138301526123426000f3fe608060405234801561001057600080fd5b50600436106101a35760003560e01c806370a08231116100ee5780639ab24eb011610097578063c3cda52011610071578063c3cda5201461039e578063d505accf146103b1578063dd62ed3e146103c4578063f1127ed8146103fd57600080fd5b80639ab24eb014610365578063a457c2d714610378578063a9059cbb1461038b57600080fd5b80638e539e8c116100c85780638e539e8c1461032b57806391ddadf41461033e57806395d89b411461035d57600080fd5b806370a08231146102d45780637ecebe00146102fd57806384b0196e1461031057600080fd5b80633950935111610150578063587cde1e1161012a578063587cde1e146102535780635c19a95c146102975780636fcfff45146102ac57600080fd5b806339509351146102255780633a46b1a8146102385780634bf5d7e91461024b57600080fd5b806323b872dd1161018157806323b872dd146101fb578063313ce5671461020e5780633644e5151461021d57600080fd5b806306fdde03146101a8578063095ea7b3146101c657806318160ddd146101e9575b600080fd5b6101b061043a565b6040516101bd9190611e4b565b60405180910390f35b6101d96101d4366004611e7a565b6104cc565b60405190151581526020016101bd565b6002545b6040519081526020016101bd565b6101d9610209366004611ea4565b6104e6565b604051601281526020016101bd565b6101ed61050a565b6101d9610233366004611e7a565b610519565b6101ed610246366004611e7a565b610558565b6101b06105e6565b61027f610261366004611ee0565b6001600160a01b039081166000908152600960205260409020541690565b6040516001600160a01b0390911681526020016101bd565b6102aa6102a5366004611ee0565b61067e565b005b6102bf6102ba366004611ee0565b61068b565b60405163ffffffff90911681526020016101bd565b6101ed6102e2366004611ee0565b6001600160a01b031660009081526020819052604090205490565b6101ed61030b366004611ee0565b6106ad565b6103186106cb565b6040516101bd9796959493929190611efb565b6101ed610339366004611f91565b610754565b6103466107bf565b60405165ffffffffffff90911681526020016101bd565b6101b06107ca565b6101ed610373366004611ee0565b6107d9565b6101d9610386366004611e7a565b61085b565b6101d9610399366004611e7a565b610905565b6102aa6103ac366004611fbb565b610913565b6102aa6103bf366004612013565b610a49565b6101ed6103d236600461207d565b6001600160a01b03918216600090815260016020908152604080832093909416825291909152205490565b61041061040b3660046120b0565b610bad565b60408051825163ffffffff1681526020928301516001600160e01b031692810192909252016101bd565b606060038054610449906120f0565b80601f0160208091040260200160405190810160405280929190818152602001828054610475906120f0565b80156104c25780601f10610497576101008083540402835291602001916104c2565b820191906000526020600020905b8154815290600101906020018083116104a557829003601f168201915b5050505050905090565b6000336104da818585610f99565b60019150505b92915050565b6000336104f48582856110bd565b6104ff858585611149565b506001949350505050565b6000610514611322565b905090565b3360008181526001602090815260408083206001600160a01b03871684529091528120549091906104da908290869061055390879061213a565b610f99565b60006105626107bf565b65ffffffffffff1682106105bd5760405162461bcd60e51b815260206004820152601960248201527f4552433230566f7465733a20667574757265206c6f6f6b75700000000000000060448201526064015b60405180910390fd5b6001600160a01b0383166000908152600a602052604090206105df908361144d565b9392505050565b6060436105f16107bf565b65ffffffffffff16146106465760405162461bcd60e51b815260206004820152601d60248201527f4552433230566f7465733a2062726f6b656e20636c6f636b206d6f646500000060448201526064016105b4565b5060408051808201909152601d81527f6d6f64653d626c6f636b6e756d6265722666726f6d3d64656661756c74000000602082015290565b6106883382611536565b50565b6001600160a01b0381166000908152600a60205260408120546104e090610e5c565b6001600160a01b0381166000908152600760205260408120546104e0565b6000606080828080836106ff7f000000000000000000000000000000000000000000000000000000000000000060056115c7565b61072a7f000000000000000000000000000000000000000000000000000000000000000060066115c7565b60408051600080825260208201909252600f60f81b9b939a50919850469750309650945092509050565b600061075e6107bf565b65ffffffffffff1682106107b45760405162461bcd60e51b815260206004820152601960248201527f4552433230566f7465733a20667574757265206c6f6f6b75700000000000000060448201526064016105b4565b6104e0600b8361144d565b600061051443610f0f565b606060048054610449906120f0565b6001600160a01b0381166000908152600a60205260408120548015610848576001600160a01b0383166000908152600a602052604090208054600019830190811061082657610826612163565b60009182526020909120015464010000000090046001600160e01b031661084b565b60005b6001600160e01b03169392505050565b3360008181526001602090815260408083206001600160a01b0387168452909152812054909190838110156108f85760405162461bcd60e51b815260206004820152602560248201527f45524332303a2064656372656173656420616c6c6f77616e63652062656c6f7760448201527f207a65726f00000000000000000000000000000000000000000000000000000060648201526084016105b4565b6104ff8286868403610f99565b6000336104da818585611149565b834211156109635760405162461bcd60e51b815260206004820152601d60248201527f4552433230566f7465733a207369676e6174757265206578706972656400000060448201526064016105b4565b604080517fe48329057bfd03d55e49b547132e39cffd9c1820ad7b9d4c5307691425d15adf60208201526001600160a01b0388169181019190915260608101869052608081018590526000906109dd906109d59060a0016040516020818303038152906040528051906020012061166b565b858585611698565b90506109e8816116c0565b8614610a365760405162461bcd60e51b815260206004820152601960248201527f4552433230566f7465733a20696e76616c6964206e6f6e63650000000000000060448201526064016105b4565b610a408188611536565b50505050505050565b83421115610a995760405162461bcd60e51b815260206004820152601d60248201527f45524332305065726d69743a206578706972656420646561646c696e6500000060448201526064016105b4565b60007f6e71edae12b1b97f4d1f60370fef10105fa2faae0126114a169c64845d6126c9888888610ac88c6116c0565b6040805160208101969096526001600160a01b0394851690860152929091166060840152608083015260a082015260c0810186905260e0016040516020818303038152906040528051906020012090506000610b238261166b565b90506000610b3382878787611698565b9050896001600160a01b0316816001600160a01b031614610b965760405162461bcd60e51b815260206004820152601e60248201527f45524332305065726d69743a20696e76616c6964207369676e6174757265000060448201526064016105b4565b610ba18a8a8a610f99565b50505050505050505050565b60408051808201909152600080825260208201526001600160a01b0383166000908152600a60205260409020805463ffffffff8416908110610bf157610bf1612163565b60009182526020918290206040805180820190915291015463ffffffff8116825264010000000090046001600160e01b0316918101919091529392505050565b6000602083511015610c4d57610c46836116e8565b90506104e0565b81610c5884826121c7565b5060ff90506104e0565b90565b610c6f8282610d02565b6002546001600160e01b031015610cee5760405162461bcd60e51b815260206004820152603060248201527f4552433230566f7465733a20746f74616c20737570706c79207269736b73206f60448201527f766572666c6f77696e6720766f7465730000000000000000000000000000000060648201526084016105b4565b610cfc600b610dcd83611726565b50505050565b6001600160a01b038216610d585760405162461bcd60e51b815260206004820152601f60248201527f45524332303a206d696e7420746f20746865207a65726f20616464726573730060448201526064016105b4565b8060026000828254610d6a919061213a565b90915550506001600160a01b038216600081815260208181526040808320805486019055518481527fddf252ad1be2c89b69c2b068fc378daa952ba7f163c4a11628f55a4df523b3ef910160405180910390a3610dc96000838361189b565b5050565b60006105df828461213a565b60006001600160e01b03821115610e585760405162461bcd60e51b815260206004820152602760248201527f53616665436173743a2076616c756520646f65736e27742066697420696e203260448201527f323420626974730000000000000000000000000000000000000000000000000060648201526084016105b4565b5090565b600063ffffffff821115610e585760405162461bcd60e51b815260206004820152602660248201527f53616665436173743a2076616c756520646f65736e27742066697420696e203360448201527f322062697473000000000000000000000000000000000000000000000000000060648201526084016105b4565b6001600160a01b03838116600090815260096020526040808220548584168352912054610f0a929182169116836118a6565b505050565b600065ffffffffffff821115610e585760405162461bcd60e51b815260206004820152602660248201527f53616665436173743a2076616c756520646f65736e27742066697420696e203460448201527f382062697473000000000000000000000000000000000000000000000000000060648201526084016105b4565b60006105df8284612287565b6001600160a01b038316610ffb5760405162461bcd60e51b8152602060048201526024808201527f45524332303a20617070726f76652066726f6d20746865207a65726f206164646044820152637265737360e01b60648201526084016105b4565b6001600160a01b03821661105c5760405162461bcd60e51b815260206004820152602260248201527f45524332303a20617070726f766520746f20746865207a65726f206164647265604482015261737360f01b60648201526084016105b4565b6001600160a01b0383811660008181526001602090815260408083209487168084529482529182902085905590518481527f8c5be1e5ebec7d5bd14f71427d1e84f3dd0314c0f7b2291e5b200ac8c7c3b925910160405180910390a3505050565b6001600160a01b038381166000908152600160209081526040808320938616835292905220546000198114610cfc578181101561113c5760405162461bcd60e51b815260206004820152601d60248201527f45524332303a20696e73756666696369656e7420616c6c6f77616e636500000060448201526064016105b4565b610cfc8484848403610f99565b6001600160a01b0383166111c55760405162461bcd60e51b815260206004820152602560248201527f45524332303a207472616e736665722066726f6d20746865207a65726f20616460448201527f647265737300000000000000000000000000000000000000000000000000000060648201526084016105b4565b6001600160a01b0382166112275760405162461bcd60e51b815260206004820152602360248201527f45524332303a207472616e7366657220746f20746865207a65726f206164647260448201526265737360e81b60648201526084016105b4565b6001600160a01b038316600090815260208190526040902054818110156112b65760405162461bcd60e51b815260206004820152602660248201527f45524332303a207472616e7366657220616d6f756e742065786365656473206260448201527f616c616e6365000000000000000000000000000000000000000000000000000060648201526084016105b4565b6001600160a01b03848116600081815260208181526040808320878703905593871680835291849020805487019055925185815290927fddf252ad1be2c89b69c2b068fc378daa952ba7f163c4a11628f55a4df523b3ef910160405180910390a3610cfc84848461189b565b6000306001600160a01b037f00000000000000000000000000000000000000000000000000000000000000001614801561137b57507f000000000000000000000000000000000000000000000000000000000000000046145b156113a557507f000000000000000000000000000000000000000000000000000000000000000090565b610514604080517f8b73c3c69bb8fe3d512ecc4cf759cc79239f7b179b0ffacaa9a75d522b39400f60208201527f0000000000000000000000000000000000000000000000000000000000000000918101919091527f000000000000000000000000000000000000000000000000000000000000000060608201524660808201523060a082015260009060c00160405160208183030381529060405280519060200120905090565b8154600090818160058111156114a7576000611468846119e3565b6114729085612287565b600088815260209020909150869082015463ffffffff161115611497578091506114a5565b6114a281600161213a565b92505b505b808210156114f45760006114bb8383611acb565b600088815260209020909150869082015463ffffffff1611156114e0578091506114ee565b6114eb81600161213a565b92505b506114a7565b8015611520576000868152602090208101600019015464010000000090046001600160e01b0316611523565b60005b6001600160e01b03169695505050505050565b6001600160a01b038281166000818152600960208181526040808420805485845282862054949093528787167fffffffffffffffffffffffff00000000000000000000000000000000000000008416811790915590519190951694919391928592917f3134e8a2e6d97e929a7e54011ea5485d7d196dd5f0ba4d4ef95803e8e3fc257f9190a4610cfc8284836118a6565b606060ff83146115da57610c4683611ae6565b8180546115e6906120f0565b80601f0160208091040260200160405190810160405280929190818152602001828054611612906120f0565b801561165f5780601f106116345761010080835404028352916020019161165f565b820191906000526020600020905b81548152906001019060200180831161164257829003601f168201915b505050505090506104e0565b60006104e0611678611322565b8360405161190160f01b8152600281019290925260228201526042902090565b60008060006116a987878787611b25565b915091506116b681611be9565b5095945050505050565b6001600160a01b03811660009081526007602052604090208054600181018255905b50919050565b600080829050601f81511115611713578260405163305a27a960e01b81526004016105b49190611e4b565b805161171e8261229a565b179392505050565b825460009081908181156117735760008781526020902082016000190160408051808201909152905463ffffffff8116825264010000000090046001600160e01b03166020820152611788565b60408051808201909152600080825260208201525b905080602001516001600160e01b031693506117a884868863ffffffff16565b92506000821180156117d257506117bd6107bf565b65ffffffffffff16816000015163ffffffff16145b15611817576117e083610dd9565b60008881526020902083016000190180546001600160e01b03929092166401000000000263ffffffff909216919091179055611891565b86604051806040016040528061183b61182e6107bf565b65ffffffffffff16610e5c565b63ffffffff16815260200161184f86610dd9565b6001600160e01b0390811690915282546001810184556000938452602093849020835194909301519091166401000000000263ffffffff909316929092179101555b5050935093915050565b610f0a838383610ed8565b816001600160a01b0316836001600160a01b0316141580156118c85750600081115b15610f0a576001600160a01b03831615611956576001600160a01b0383166000908152600a60205260408120819061190390610f8d85611726565b91509150846001600160a01b03167fdec2bacdd2f05b59de34da9b523dff8be42e5e38e818c82fdb0bae774387a724838360405161194b929190918252602082015260400190565b60405180910390a250505b6001600160a01b03821615610f0a576001600160a01b0382166000908152600a60205260408120819061198c90610dcd85611726565b91509150836001600160a01b03167fdec2bacdd2f05b59de34da9b523dff8be42e5e38e818c82fdb0bae774387a72483836040516119d4929190918252602082015260400190565b60405180910390a25050505050565b6000816000036119f557506000919050565b60006001611a0284611d33565b901c6001901b90506001818481611a1b57611a1b6122be565b048201901c90506001818481611a3357611a336122be565b048201901c90506001818481611a4b57611a4b6122be565b048201901c90506001818481611a6357611a636122be565b048201901c90506001818481611a7b57611a7b6122be565b048201901c90506001818481611a9357611a936122be565b048201901c90506001818481611aab57611aab6122be565b048201901c90506105df81828581611ac557611ac56122be565b04611dc7565b6000611ada60028484186122d4565b6105df9084841661213a565b60606000611af383611ddd565b604080516020808252818301909252919250600091906020820181803683375050509182525060208101929092525090565b6000807f7fffffffffffffffffffffffffffffff5d576e7357a4501ddfe92f46681b20a0831115611b5c5750600090506003611be0565b6040805160008082526020820180845289905260ff881692820192909252606081018690526080810185905260019060a0016020604051602081039080840390855afa158015611bb0573d6000803e3d6000fd5b5050604051601f1901519150506001600160a01b038116611bd957600060019250925050611be0565b9150600090505b94509492505050565b6000816004811115611bfd57611bfd6122f6565b03611c055750565b6001816004811115611c1957611c196122f6565b03611c665760405162461bcd60e51b815260206004820152601860248201527f45434453413a20696e76616c6964207369676e6174757265000000000000000060448201526064016105b4565b6002816004811115611c7a57611c7a6122f6565b03611cc75760405162461bcd60e51b815260206004820152601f60248201527f45434453413a20696e76616c6964207369676e6174757265206c656e6774680060448201526064016105b4565b6003816004811115611cdb57611cdb6122f6565b036106885760405162461bcd60e51b815260206004820152602260248201527f45434453413a20696e76616c6964207369676e6174757265202773272076616c604482015261756560f01b60648201526084016105b4565b600080608083901c15611d4857608092831c92015b604083901c15611d5a57604092831c92015b602083901c15611d6c57602092831c92015b601083901c15611d7e57601092831c92015b600883901c15611d9057600892831c92015b600483901c15611da257600492831c92015b600283901c15611db457600292831c92015b600183901c156104e05760010192915050565b6000818310611dd657816105df565b5090919050565b600060ff8216601f8111156104e057604051632cd44ac360e21b815260040160405180910390fd5b6000815180845260005b81811015611e2b57602081850181015186830182015201611e0f565b506000602082860101526020601f19601f83011685010191505092915050565b6020815260006105df6020830184611e05565b80356001600160a01b0381168114611e7557600080fd5b919050565b60008060408385031215611e8d57600080fd5b611e9683611e5e565b946020939093013593505050565b600080600060608486031215611eb957600080fd5b611ec284611e5e565b9250611ed060208501611e5e565b9150604084013590509250925092565b600060208284031215611ef257600080fd5b6105df82611e5e565b60ff60f81b881681526000602060e081840152611f1b60e084018a611e05565b8381036040850152611f2d818a611e05565b606085018990526001600160a01b038816608086015260a0850187905284810360c0860152855180825283870192509083019060005b81811015611f7f57835183529284019291840191600101611f63565b50909c9b505050505050505050505050565b600060208284031215611fa357600080fd5b5035919050565b803560ff81168114611e7557600080fd5b60008060008060008060c08789031215611fd457600080fd5b611fdd87611e5e565b95506020870135945060408701359350611ff960608801611faa565b92506080870135915060a087013590509295509295509295565b600080600080600080600060e0888a03121561202e57600080fd5b61203788611e5e565b965061204560208901611e5e565b9550604088013594506060880135935061206160808901611faa565b925060a0880135915060c0880135905092959891949750929550565b6000806040838503121561209057600080fd5b61209983611e5e565b91506120a760208401611e5e565b90509250929050565b600080604083850312156120c357600080fd5b6120cc83611e5e565b9150602083013563ffffffff811681146120e557600080fd5b809150509250929050565b600181811c9082168061210457607f821691505b6020821081036116e257634e487b7160e01b600052602260045260246000fd5b634e487b7160e01b600052601160045260246000fd5b808201808211156104e0576104e0612124565b634e487b7160e01b600052604160045260246000fd5b634e487b7160e01b600052603260045260246000fd5b601f821115610f0a57600081815260208120601f850160051c810160208610156121a05750805b601f850160051c820191505b818110156121bf578281556001016121ac565b505050505050565b815167ffffffffffffffff8111156121e1576121e161214d565b6121f5816121ef84546120f0565b84612179565b602080601f83116001811461222a57600084156122125750858301515b600019600386901b1c1916600185901b1785556121bf565b600085815260208120601f198616915b828110156122595788860151825594840194600190910190840161223a565b50858210156122775787850151600019600388901b60f8161c191681555b5050505050600190811b01905550565b818103818111156104e0576104e0612124565b805160208083015191908110156116e25760001960209190910360031b1b16919050565b634e487b7160e01b600052601260045260246000fd5b6000826122f157634e487b7160e01b600052601260045260246000fd5b500490565b634e487b7160e01b600052602160045260246000fdfea264697066735822122005e1242b1a3327d6c2b15992335325797f28e625f16a3d83ff6910c585dfa29d64736f6c63430008120033dec2bacdd2f05b59de34da9b523dff8be42e5e38e818c82fdb0bae774387a724",
    "linkReferences": {}
  },
  "methodIdentifiers": {
    "CLOCK_MODE()": "4bf5d7e9",
    "DOMAIN_SEPARATOR()": "3644e515",
    "allowance(address,address)": "dd62ed3e",
    "approve(address,uint256)": "095ea7b3",
    "balanceOf(address)": "70a08231",
    "checkpoints(address,uint32)": "f1127ed8",
    "clock()": "91ddadf4",
    "decimals()": "313ce567",
    "decreaseAllowance(address,uint256)": "a457c2d7",
    "delegate(address)": "5c19a95c",
    "delegateBySig(address,uint256,uint256,uint8,bytes32,bytes32)": "c3cda520",
    "delegates(address)": "587cde1e",
    "eip712Domain()": "84b0196e",
    "getPastTotalSupply(uint256)": "8e539e8c",
    "getPastVotes(address,uint256)": "3a46b1a8",
    "getVotes(address)": "9ab24eb0",
    "increaseAllowance(address,uint256)": "39509351",
    "name()": "06fdde03",
    "nonces(address)": "7ecebe00",
    "numCheckpoints(address)": "6fcfff45",
    "permit(address,address,uint256,uint256,uint8,bytes32,bytes32)": "d505accf",
    "symbol()": "95d89b41",
    "totalSupply()": "18160ddd",
    "transfer(address,uint256)": "a9059cbb",
    "transferFrom(address,address,uint256)": "23b872dd"
  },
  "id": 1
}